{
  "_format": "hh-sol-artifact-1",
  "contractName": "UserDeposit",
  "sourceName": "data/source/services/UserDeposit.sol",
  "abi": [
    {
      "inputs": [
        {
          "internalType": "address",
          "name": "_token_address",
          "type": "address"
        },
        {
          "internalType": "uint256",
          "name": "_whole_balance_limit",
          "type": "uint256"
        }
      ],
      "stateMutability": "nonpayable",
      "type": "constructor"
    },
    {
      "anonymous": false,
      "inputs": [
        {
          "indexed": true,
          "internalType": "address",
          "name": "owner",
          "type": "address"
        },
        {
          "indexed": false,
          "internalType": "uint256",
          "name": "newBalance",
          "type": "uint256"
        }
      ],
      "name": "BalanceReduced",
      "type": "event"
    },
    {
      "anonymous": false,
      "inputs": [
        {
          "indexed": true,
          "internalType": "address",
          "name": "withdrawer",
          "type": "address"
        },
        {
          "indexed": false,
          "internalType": "uint256",
          "name": "plannedBalance",
          "type": "uint256"
        }
      ],
      "name": "WithdrawPlanned",
      "type": "event"
    },
    {
      "inputs": [
        {
          "internalType": "address",
          "name": "",
          "type": "address"
        }
      ],
      "name": "balances",
      "outputs": [
        {
          "internalType": "uint256",
          "name": "",
          "type": "uint256"
        }
      ],
      "stateMutability": "view",
      "type": "function"
    },
    {
      "inputs": [
        {
          "internalType": "address",
          "name": "contract_address",
          "type": "address"
        }
      ],
      "name": "contractExists",
      "outputs": [
        {
          "internalType": "bool",
          "name": "",
          "type": "bool"
        }
      ],
      "stateMutability": "view",
      "type": "function"
    },
    {
      "inputs": [
        {
          "internalType": "address",
          "name": "beneficiary",
          "type": "address"
        },
        {
          "internalType": "uint256",
          "name": "new_total_deposit",
          "type": "uint256"
        }
      ],
      "name": "deposit",
      "outputs": [],
      "stateMutability": "nonpayable",
      "type": "function"
    },
    {
      "inputs": [
        {
          "internalType": "address",
          "name": "owner",
          "type": "address"
        }
      ],
      "name": "effectiveBalance",
      "outputs": [
        {
          "internalType": "uint256",
          "name": "remaining_balance",
          "type": "uint256"
        }
      ],
      "stateMutability": "view",
      "type": "function"
    },
    {
      "inputs": [
        {
          "internalType": "address",
          "name": "_msc_address",
          "type": "address"
        },
        {
          "internalType": "address",
          "name": "_one_to_n_address",
          "type": "address"
        }
      ],
      "name": "init",
      "outputs": [],
      "stateMutability": "nonpayable",
      "type": "function"
    },
    {
      "inputs": [],
      "name": "msc_address",
      "outputs": [
        {
          "internalType": "address",
          "name": "",
          "type": "address"
        }
      ],
      "stateMutability": "view",
      "type": "function"
    },
    {
      "inputs": [],
      "name": "one_to_n_address",
      "outputs": [
        {
          "internalType": "address",
          "name": "",
          "type": "address"
        }
      ],
      "stateMutability": "view",
      "type": "function"
    },
    {
      "inputs": [
        {
          "internalType": "uint256",
          "name": "amount",
          "type": "uint256"
        }
      ],
      "name": "planWithdraw",
      "outputs": [],
      "stateMutability": "nonpayable",
      "type": "function"
    },
    {
      "inputs": [],
      "name": "token",
      "outputs": [
        {
          "internalType": "contract Token",
          "name": "",
          "type": "address"
        }
      ],
      "stateMutability": "view",
      "type": "function"
    },
    {
      "inputs": [
        {
          "internalType": "address",
          "name": "",
          "type": "address"
        }
      ],
      "name": "total_deposit",
      "outputs": [
        {
          "internalType": "uint256",
          "name": "",
          "type": "uint256"
        }
      ],
      "stateMutability": "view",
      "type": "function"
    },
    {
      "inputs": [
        {
          "internalType": "address",
          "name": "sender",
          "type": "address"
        },
        {
          "internalType": "address",
          "name": "receiver",
          "type": "address"
        },
        {
          "internalType": "uint256",
          "name": "amount",
          "type": "uint256"
        }
      ],
      "name": "transfer",
      "outputs": [
        {
          "internalType": "bool",
          "name": "success",
          "type": "bool"
        }
      ],
      "stateMutability": "nonpayable",
      "type": "function"
    },
    {
      "inputs": [],
      "name": "whole_balance",
      "outputs": [
        {
          "internalType": "uint256",
          "name": "",
          "type": "uint256"
        }
      ],
      "stateMutability": "view",
      "type": "function"
    },
    {
      "inputs": [],
      "name": "whole_balance_limit",
      "outputs": [
        {
          "internalType": "uint256",
          "name": "",
          "type": "uint256"
        }
      ],
      "stateMutability": "view",
      "type": "function"
    },
    {
      "inputs": [
        {
          "internalType": "uint256",
          "name": "amount",
          "type": "uint256"
        }
      ],
      "name": "withdraw",
      "outputs": [],
      "stateMutability": "nonpayable",
      "type": "function"
    },
    {
      "inputs": [],
      "name": "withdraw_delay",
      "outputs": [
        {
          "internalType": "uint256",
          "name": "",
          "type": "uint256"
        }
      ],
      "stateMutability": "view",
      "type": "function"
    },
    {
      "inputs": [
        {
          "internalType": "address",
          "name": "",
          "type": "address"
        }
      ],
      "name": "withdraw_plans",
      "outputs": [
        {
          "internalType": "uint256",
          "name": "amount",
          "type": "uint256"
        },
        {
          "internalType": "uint256",
          "name": "withdraw_block",
          "type": "uint256"
        }
      ],
      "stateMutability": "view",
      "type": "function"
    }
  ],
  "bytecode": "0x608060405260006006620000126200031f565b50503480156200002c576000806200002962000383565b50505b5060405162001a6638038062001a66833981810160405260408110156200005d576000806200005a62000383565b50505b8101908080519291906020018051925050506001600160a01b038216620000d55760405162461bcd60e51b815260206004820152601560248201527f746f6b656e2061742061646472657373207a65726f0000000000000000000000604482015260640160405180910390620000d262000383565b50505b620000e08262000308565b620001305760405162461bcd60e51b8152602060048201526011602482015270746f6b656e20686173206e6f20636f646560781b6044820152606401604051809103906200012d62000383565b50505b81600060018162000140620003f0565b816001600160a01b0302191690836001600160a01b0316021790620001646200031f565b50505060008060009062000177620003f0565b906101000a90046001600160a01b03166001600160a01b03166318160ddd6040518163ffffffff1660e01b81526004016020604051808303818680620001bc6200043d565b158015620001d457600080620001d162000383565b50505b505a620001e06200048a565b505050505015801562000202573d6000803e3d6000620001ff62000383565b50505b505050506040513d602081101562000224576000806200022162000383565b50505b8101908080519390931192506200028f9150505760405162461bcd60e51b815260206004820152601960248201527f746f6b656e20686173206e6f20746f74616c20737570706c79000000000000006044820152606401604051809103906200028c62000383565b50505b60008111620002ef5760405162461bcd60e51b815260206004820152601b60248201527f77686f6c652062616c616e6365206c696d6974206973207a65726f0000000000604482015260640160405180910390620002ec62000383565b50505b80806007620002fd6200031f565b505050505062000582565b60008082620003166200043d565b15159392505050565b6322bd64c0598160e01b8152836004820152846024820152600081604483336000905af158600e01573d6000803e3d6000fd5b3d6001141558600a015760016000f35b60005b60408110156200037e5760008282015260200162000365565b505050565b632a2a7adb598160e01b8152600481016020815285602082015260005b86811015620003bd578086015182820160400152602001620003a0565b506020828760640184336000905af158600e01573d6000803e3d6000fd5b3d6001141558600a015760016000f35b505050565b6303daa959598160e01b8152836004820152602081602483336000905af158600e01573d6000803e3d6000fd5b3d6001141558600a015760016000f35b8051600082529350602062000365565b638435035b598160e01b8152836004820152602081602483336000905af158600e01573d6000803e3d6000fd5b3d6001141558600a015760016000f35b8051600082529350602062000365565b638540661f598160e01b8152620004c0565b8080831115620004a95750815b92915050565b8080831015620004a9575090919050565b836004820152846024820152606060448201528660648201526084810160005b88811015620004fa578088015182820152602001620004e0565b506060828960a40184336000905af158600e01573d6000803e3d6000fd5b3d6001141558600a015760016000f35b815160408301513d6000853e8b8b82606087013350600060045af15059620005518d3d620004af565b8c016200055f81876200049c565b5b8281101562000576576000815260200162000560565b50929c50505050505050565b6114d480620005926000396000f3fe6080604052348015610019576000806100166111dc565b50505b50600436106100d95760003560e01c8063145ccb0f146100e757806316a398f71461010f57806325fc2ccf1461015057806327e235e3146101585780632e1a7d4d146101875780633e90af50146101ad57806347e7ef24146101f45780637709bc78146102295780638fd066e01461026c578063b0a05a2e14610274578063beabacc814610298578063d54b10e3146102d7578063d635f2ee146102df578063d7a2729a1461030e578063f09a401614610316578063fc0c546a1461034d575b6000806100e46111dc565b50505b61010d60048036036020811015610106576000806101036111dc565b50505b5035610355565b005b61013e6004803603602081101561012e5760008061012b6111dc565b50505b50356001600160a01b0316610519565b60405190815260200160405180910390f35b61013e6105a1565b61013e60048036036020811015610177576000806101746111dc565b50505b50356001600160a01b03166105a6565b61010d600480360360208110156101a6576000806101a36111dc565b50505b50356105c1565b6101dc600480360360208110156101cc576000806101c96111dc565b50505b50356001600160a01b03166109c3565b60405191825260208201526040908101905180910390f35b61010d60048036036040811015610213576000806102106111dc565b50505b506001600160a01b0381351690602001356109ee565b61025860048036036020811015610248576000806102456111dc565b50505b50356001600160a01b0316610cb7565b604051901515815260200160405180910390f35b61013e610ccc565b61027c610cd6565b6040516001600160a01b03909116815260200160405180910390f35b610258600480360360608110156102b7576000806102b46111dc565b50505b506001600160a01b03813581169160208101359091169060400135610cf5565b61027c610f12565b61013e600480360360208110156102fe576000806102fb6111dc565b50505b50356001600160a01b0316610f1e565b61013e610f36565b61010d60048036036040811015610335576000806103326111dc565b50505b506001600160a01b0381358116916020013516610f40565b61027c6111b7565b600081116103a55760405162461bcd60e51b815260206004820152601060248201526f7769746864726177696e67207a65726f60801b6044820152606401604051809103906103a26111dc565b50505b80600460005a6103b3611247565b6001600160a01b03166001600160a01b031681526020019081526020016000206103db61129c565b101561042d5760405162461bcd60e51b81526020600482015260146024820152730eed2e8d0c8e4c2eed2dcce40e8dede40daeac6d60631b60448201526064016040518091039061042a6111dc565b50505b604051806040016040528082815260200160645a6104496112e8565b019052600560005a610459611247565b6001600160a01b03166001600160a01b0316815260200190815260200160002081518161048461132e565b505060208201518160010161049761132e565b505050505a6104a4611247565b6001600160a01b03167f1d6ecaf99b9d2150d4774c1ea17e3a04631acbfe71d58d2e9c7abbbc4561e03982600460005a6104dc611247565b6001600160a01b03166001600160a01b0316815260200190815260200160002061050461129c565b0360405190815260200160405180910390a250565b6001600160a01b0381166000908152600560205280604081206001600160a01b038416600090815260046020529091506040902061055561129c565b8161055e61129c565b111561056e57600091505061059c565b8061057761129c565b6001600160a01b038416600090815260046020526040902061059761129c565b039150505b919050565b606481565b600460205280600052604060002090506105be61129c565b81565b6000600560005a6105d0611247565b6001600160a01b03166001600160a01b031681526020019081526020016000209050806105fb61129c565b8211156106575760405162461bcd60e51b815260206004820152601d60248201527f7769746864726177696e67206d6f7265207468616e20706c616e6e65640000006044820152606401604051809103906106546111dc565b50505b5a6106606112e8565b8160010161066c61129c565b11156106bf5760405162461bcd60e51b81526020600482015260156024820152747769746864726177696e6720746f6f206561726c7960581b6044820152606401604051809103906106bc6111dc565b50505b60006106ff83600460005a6106d2611247565b6001600160a01b03166001600160a01b031681526020019081526020016000206106fa61129c565b6111c2565b905080600460005a61070f611247565b6001600160a01b03166001600160a01b031681526020019081526020016000206000828261073b61129c565b03925050819061074961132e565b505050600661075661129c565b81600661076161129c565b0311156107ba5760405162461bcd60e51b815260206004820152601a602482015279756e646572666c6f7720696e2077686f6c655f62616c616e636560301b6044820152606401604051809103906107b76111dc565b50505b806006600082826107c961129c565b0392505081906107d761132e565b5050505a6107e3611247565b6001600160a01b03166000805160206114b4833981519152600460005a610808611247565b6001600160a01b03166001600160a01b0316815260200190815260200160002061083061129c565b60405190815260200160405180910390a2600560005a61084e611247565b6001600160a01b03166001600160a01b031681526020019081526020016000206000808261087a61132e565b50506001820160009061088b61132e565b5050505060008061089a61129c565b906101000a90046001600160a01b03166001600160a01b031663a9059cbb5a6108c1611247565b836040516001600160e01b031960e085901b1681526001600160a01b03909216600483015260248201526044016020604051808303816000878061090361137c565b158015610918576000806109156111dc565b50505b505a6109226113c8565b505050505050158015610942573d6000803e3d600061093f6111dc565b50505b505050506040513d60208110156109615760008061095e6111dc565b50505b81019080805192506109be9150505760405162461bcd60e51b81526020600482015260166024820152753a37b5b2b739903234b23713ba103a3930b739b332b960511b6044820152606401604051809103906109bb6111dc565b50505b505050565b60056020528060005260406000209050806109dc61129c565b90806001016109e961129c565b905082565b6001600160a01b0382166000908152600360205260409020610a0e61129c565b8111610a625760405162461bcd60e51b81526020600482015260166024820152756465706f736974206e6f7420696e6372656173696e6760501b604482015260640160405180910390610a5f6111dc565b50505b6001600160a01b0382166000908152600360205260408120610a8261129c565b6001600160a01b03841660009081526004602052908303915081906040902060008282610aad61129c565b019250508190610abb61132e565b5050506001600160a01b0383166000908152600360205281906040902060008282610ae461129c565b019250508190610af261132e565b5050506006610aff61129c565b816006610b0a61129c565b011015610b5c5760405162461bcd60e51b81526020600482015260136024820152721bdd995c999b1bddda5b99c819195c1bdcda5d606a1b604482015260640160405180910390610b596111dc565b50505b80600660008282610b6b61129c565b019250508190610b7961132e565b5050506007610b8661129c565b6006610b9061129c565b1115610bde5760405162461bcd60e51b815260206004820152601060248201526f1d1bdbc81b5d58da0819195c1bdcda5d60821b604482015260640160405180910390610bdb6111dc565b50505b600080610be961129c565b906101000a90046001600160a01b03166001600160a01b03166323b872dd5a610c10611247565b5a63996d79a5598160e01b8152602081600483336000905af158600e01573d6000803e3d6000fd5b3d6001141558600a015760016000f35b8051925060005b6040811015610c6657600082820152602001610c4f565b505050846040516001600160e01b031960e086901b1681526001600160a01b03938416600482015291909216602482015260448101919091526064016020604051808303816000878061090361137c565b60008082610cc361137c565b15159392505050565b60066105be61129c565b60006002610ce261129c565b906101000a90046001600160a01b031681565b6000806001610d0261129c565b906101000a90046001600160a01b03166001600160a01b03165a610d24611247565b6001600160a01b03161480610d6d575060006002610d4061129c565b906101000a90046001600160a01b03166001600160a01b03165a610d62611247565b6001600160a01b0316145b610db75760405162461bcd60e51b815260206004820152600e60248201526d3ab735b737bbb71031b0b63632b960911b604482015260640160405180910390610db46111dc565b50505b826001600160a01b0316846001600160a01b03161415610e1b5760405162461bcd60e51b815260206004820152601260248201527139b2b73232b9101e9e903932b1b2b4bb32b960711b604482015260640160405180910390610e186111dc565b50505b6001600160a01b03841660009081526004602052829060409020610e3d61129c565b10158015610e4b5750600082115b15610f07576001600160a01b0384166000908152600460205282906040902060008282610e7661129c565b039250508190610e8461132e565b5050506001600160a01b0383166000908152600460205282906040902060008282610ead61129c565b019250508190610ebb61132e565b5050506001600160a01b038416600081815260046020526000805160206114b48339815191529060409020610eee61129c565b60405190815260200160405180910390a2506001610f0b565b5060005b9392505050565b60006001610ce261129c565b600360205280600052604060002090506105be61129c565b60076105be61129c565b6000806001610f4d61129c565b906101000a90046001600160a01b03166001600160a01b0316148015610f9657506000806002610f7b61129c565b906101000a90046001600160a01b03166001600160a01b0316145b610fe55760405162461bcd60e51b8152602060048201526013602482015272185b1c9958591e481a5b9a5d1a585b1a5e9959606a1b604482015260640160405180910390610fe26111dc565b50505b6001600160a01b0382166110465760405162461bcd60e51b815260206004820152601b60248201527a4d5320636f6e74726163742061742061646472657373207a65726f60281b6044820152606401604051809103906110436111dc565b50505b61104f82610cb7565b6110a25760405162461bcd60e51b81526020600482015260176024820152764d5320636f6e747261637420686173206e6f20636f646560481b60448201526064016040518091039061109f6111dc565b50505b81600180806110af61129c565b816001600160a01b0302191690836001600160a01b03160217906110d161132e565b5050506001600160a01b0381166111305760405162461bcd60e51b81526020600482015260166024820152754f6e65546f4e2061742061646472657373207a65726f60501b60448201526064016040518091039061112d6111dc565b50505b61113981610cb7565b6111875760405162461bcd60e51b81526020600482015260126024820152714f6e65546f4e20686173206e6f20636f646560701b6044820152606401604051809103906111846111dc565b50505b80600260018161119561129c565b816001600160a01b0302191690836001600160a01b03160217906109bb61132e565b600080610ce261129c565b60008183116111d157826111d3565b815b90505b92915050565b632a2a7adb598160e01b8152600481016020815285602082015260005b868110156112145780860151828201604001526020016111f9565b506020828760640184336000905af158600e01573d6000803e3d6000fd5b3d6001141558600a015760016000f35b505050565b6373509064598160e01b8152602081600483336000905af158600e01573d6000803e3d6000fd5b3d6001141558600a015760016000f35b8051935060005b60408110156109be57600082820152602001611285565b6303daa959598160e01b8152836004820152602081602483336000905af158600e01573d6000803e3d6000fd5b3d6001141558600a015760016000f35b80516000825293506020611285565b635a98c361598160e01b8152602081600483336000905af158600e01573d6000803e3d6000fd5b3d6001141558600a015760016000f35b80516000825293506020611285565b6322bd64c0598160e01b8152836004820152846024820152600081604483336000905af158600e01573d6000803e3d6000fd5b3d6001141558600a015760016000f35b600081526020611285565b638435035b598160e01b8152836004820152602081602483336000905af158600e01573d6000803e3d6000fd5b3d6001141558600a015760016000f35b80516000825293506020611285565b6385979f76598160e01b81526113f9565b80808311156111d6575090919050565b80808310156111d6575090919050565b836004820152846024820152606060448201528760648201526084810160005b89811015611431578089015182820152602001611419565b506060828a60a40184336000905af158600e01573d6000803e3d6000fd5b3d6001141558600a015760016000f35b815160408301513d6000853e8c8c82606087013350600060045af150596114868e3d6113e9565b8d0161149281876113d9565b5b828110156114a75760008152602001611493565b50929d5050505050505056fe2e9bf8d4a8402929da26de77a79494626b184ddae2e3e0c076d6dfa10cd2a1d9",
  "linkReferences": {},
  "deployedLinkReferences": {}
}