{
  "_format": "hh-sol-artifact-1",
  "contractName": "StandardToken",
  "sourceName": "data/source/test/StandardToken.sol",
  "abi": [
    {
      "anonymous": false,
      "inputs": [
        {
          "indexed": true,
          "internalType": "address",
          "name": "_owner",
          "type": "address"
        },
        {
          "indexed": true,
          "internalType": "address",
          "name": "_spender",
          "type": "address"
        },
        {
          "indexed": false,
          "internalType": "uint256",
          "name": "_value",
          "type": "uint256"
        }
      ],
      "name": "Approval",
      "type": "event"
    },
    {
      "anonymous": false,
      "inputs": [
        {
          "indexed": true,
          "internalType": "address",
          "name": "_from",
          "type": "address"
        },
        {
          "indexed": true,
          "internalType": "address",
          "name": "_to",
          "type": "address"
        },
        {
          "indexed": false,
          "internalType": "uint256",
          "name": "_value",
          "type": "uint256"
        }
      ],
      "name": "Transfer",
      "type": "event"
    },
    {
      "inputs": [
        {
          "internalType": "address",
          "name": "_owner",
          "type": "address"
        },
        {
          "internalType": "address",
          "name": "_spender",
          "type": "address"
        }
      ],
      "name": "allowance",
      "outputs": [
        {
          "internalType": "uint256",
          "name": "remaining",
          "type": "uint256"
        }
      ],
      "stateMutability": "view",
      "type": "function"
    },
    {
      "inputs": [
        {
          "internalType": "address",
          "name": "_spender",
          "type": "address"
        },
        {
          "internalType": "uint256",
          "name": "_value",
          "type": "uint256"
        }
      ],
      "name": "approve",
      "outputs": [
        {
          "internalType": "bool",
          "name": "success",
          "type": "bool"
        }
      ],
      "stateMutability": "nonpayable",
      "type": "function"
    },
    {
      "inputs": [
        {
          "internalType": "address",
          "name": "_owner",
          "type": "address"
        }
      ],
      "name": "balanceOf",
      "outputs": [
        {
          "internalType": "uint256",
          "name": "balance",
          "type": "uint256"
        }
      ],
      "stateMutability": "view",
      "type": "function"
    },
    {
      "inputs": [
        {
          "internalType": "address",
          "name": "",
          "type": "address"
        }
      ],
      "name": "balances",
      "outputs": [
        {
          "internalType": "uint256",
          "name": "",
          "type": "uint256"
        }
      ],
      "stateMutability": "view",
      "type": "function"
    },
    {
      "inputs": [],
      "name": "decimals",
      "outputs": [
        {
          "internalType": "uint8",
          "name": "decimals",
          "type": "uint8"
        }
      ],
      "stateMutability": "view",
      "type": "function"
    },
    {
      "inputs": [],
      "name": "totalSupply",
      "outputs": [
        {
          "internalType": "uint256",
          "name": "supply",
          "type": "uint256"
        }
      ],
      "stateMutability": "view",
      "type": "function"
    },
    {
      "inputs": [
        {
          "internalType": "address",
          "name": "_to",
          "type": "address"
        },
        {
          "internalType": "uint256",
          "name": "_value",
          "type": "uint256"
        }
      ],
      "name": "transfer",
      "outputs": [
        {
          "internalType": "bool",
          "name": "success",
          "type": "bool"
        }
      ],
      "stateMutability": "nonpayable",
      "type": "function"
    },
    {
      "inputs": [
        {
          "internalType": "address",
          "name": "_from",
          "type": "address"
        },
        {
          "internalType": "address",
          "name": "_to",
          "type": "address"
        },
        {
          "internalType": "uint256",
          "name": "_value",
          "type": "uint256"
        }
      ],
      "name": "transferFrom",
      "outputs": [
        {
          "internalType": "bool",
          "name": "success",
          "type": "bool"
        }
      ],
      "stateMutability": "nonpayable",
      "type": "function"
    }
  ],
  "bytecode": "0x60806040523480156100195760008061001661001f565b50505b5061008a565b632a2a7adb598160e01b8152600481016020815285602082015260005b8681101561005757808601518282016040015260200161003c565b506020828760640184336000905af158600e01573d6000803e3d6000fd5b3d6001141558600a015760016000f35b505050565b61083b806100996000396000f3fe6080604052348015610019576000806100166106bb565b50505b50600436106100815760003560e01c8063095ea7b31461008f57806318160ddd146100d857806323b872dd146100f257806327e235e314610131578063313ce5671461016057806370a082311461017e578063a9059cbb146101ad578063dd62ed3e146101e2575b60008061008c6106bb565b50505b6100c4600480360360408110156100ae576000806100ab6106bb565b50505b506001600160a01b038135169060200135610219565b604051901515815260200160405180910390f35b6100e06102c8565b60405190815260200160405180910390f35b6100c4600480360360608110156101115760008061010e6106bb565b50505b506001600160a01b038135811691602081013590911690604001356102d8565b6100e0600480360360208110156101505760008061014d6106bb565b50505b50356001600160a01b0316610528565b610168610543565b60405160ff909116815260200160405180910390f35b6100e06004803603602081101561019d5760008061019a6106bb565b50505b50356001600160a01b0316610548565b6100c4600480360360408110156101cc576000806101c96106bb565b50505b506001600160a01b038135169060200135610568565b6100e060048036036040811015610201576000806101fe6106bb565b50505b506001600160a01b0381358116916020013516610682565b600081600260005a610229610726565b6001600160a01b03166001600160a01b031681526020019081526020016000206001600160a01b038516600090815260209190915260409020819061026c610780565b505050826001600160a01b03165a610282610726565b6001600160a01b03167f8c5be1e5ebec7d5bd14f71427d1e84f3dd0314c0f7b2291e5b200ac8c7c3b9258460405190815260200160405180910390a35060015b92915050565b6000806102d36107ce565b905090565b6001600160a01b0383166000908152600160205281604082206102f96107ce565b101561030d5760008061030a6106bb565b50505b6001600160a01b0384166000908152600260205282906040902060005a610332610726565b6001600160a01b03166001600160a01b0316815260200190815260200160002061035a6107ce565b101561036e5760008061036b6106bb565b50505b60008211610384576000806103816106bb565b50505b6001600160a01b038416600090815260016020528290604090206103a66107ce565b101580156103ff57506001600160a01b0384166000908152600260205282906040902060005a6103d4610726565b6001600160a01b03166001600160a01b031681526020019081526020016000206103fc6107ce565b10155b801561040b5750600082115b1561051d576001600160a01b03831660009081526001602052829060409020600082826104366107ce565b019250508190610444610780565b5050506001600160a01b038416600090815260016020528290604090206000828261046d6107ce565b03925050819061047b610780565b5050506001600160a01b0384166000908152600260205282906040902060005a6104a3610726565b6001600160a01b03166001600160a01b03168152602001908152602001600020600082826104cf6107ce565b0392505081906104dd610780565b505050826001600160a01b0316846001600160a01b031660008051602061081b8339815191528460405190815260200160405180910390a3506001610521565b5060005b9392505050565b600160205280600052604060002090506105406107ce565b81565b601290565b6001600160a01b03811660009081526001602052604081206102c26107ce565b600081600160005a610578610726565b6001600160a01b03166001600160a01b031681526020019081526020016000206105a06107ce565b101580156105ae5750600082115b1561067a5781600160005a6105c1610726565b6001600160a01b03166001600160a01b03168152602001908152602001600020600082826105ed6107ce565b0392505081906105fb610780565b5050506001600160a01b03831660009081526001602052829060409020600082826106246107ce565b019250508190610632610780565b505050826001600160a01b03165a610648610726565b6001600160a01b031660008051602061081b8339815191528460405190815260200160405180910390a35060016102c2565b5060006102c2565b6001600160a01b03821660009081526002602052604081206001600160a01b0383166000908152602091909152604090206105216107ce565b632a2a7adb598160e01b8152600481016020815285602082015260005b868110156106f35780860151828201604001526020016106d8565b506020828760640184336000905af158600e01573d6000803e3d6000fd5b3d6001141558600a015760016000f35b505050565b6373509064598160e01b8152602081600483336000905af158600e01573d6000803e3d6000fd5b3d6001141558600a015760016000f35b8051935060005b604081101561077b57600082820152602001610764565b505050565b6322bd64c0598160e01b8152836004820152846024820152600081604483336000905af158600e01573d6000803e3d6000fd5b3d6001141558600a015760016000f35b600081526020610764565b6303daa959598160e01b8152836004820152602081602483336000905af158600e01573d6000803e3d6000fd5b3d6001141558600a015760016000f35b8051600082529350602061076456feddf252ad1be2c89b69c2b068fc378daa952ba7f163c4a11628f55a4df523b3ef",
  "linkReferences": {},
  "deployedLinkReferences": {}
}