{
  "_format": "hh-sol-artifact-1",
  "contractName": "SecretRegistry",
  "sourceName": "data/source/raiden/SecretRegistry.sol",
  "abi": [
    {
      "anonymous": false,
      "inputs": [
        {
          "indexed": true,
          "internalType": "bytes32",
          "name": "secrethash",
          "type": "bytes32"
        },
        {
          "indexed": false,
          "internalType": "bytes32",
          "name": "secret",
          "type": "bytes32"
        }
      ],
      "name": "SecretRevealed",
      "type": "event"
    },
    {
      "inputs": [
        {
          "internalType": "bytes32",
          "name": "secrethash",
          "type": "bytes32"
        }
      ],
      "name": "getSecretRevealBlockHeight",
      "outputs": [
        {
          "internalType": "uint256",
          "name": "",
          "type": "uint256"
        }
      ],
      "stateMutability": "view",
      "type": "function"
    },
    {
      "inputs": [
        {
          "internalType": "bytes32",
          "name": "secret",
          "type": "bytes32"
        }
      ],
      "name": "registerSecret",
      "outputs": [
        {
          "internalType": "bool",
          "name": "",
          "type": "bool"
        }
      ],
      "stateMutability": "nonpayable",
      "type": "function"
    },
    {
      "inputs": [
        {
          "internalType": "bytes32[]",
          "name": "secrets",
          "type": "bytes32[]"
        }
      ],
      "name": "registerSecretBatch",
      "outputs": [
        {
          "internalType": "bool",
          "name": "",
          "type": "bool"
        }
      ],
      "stateMutability": "nonpayable",
      "type": "function"
    }
  ],
  "bytecode": "0x60806040523480156100195760008061001661001f565b50505b5061008a565b632a2a7adb598160e01b8152600481016020815285602082015260005b8681101561005757808601518282016040015260200161003c565b506020828760640184336000905af158600e01573d6000803e3d6000fd5b3d6001141558600a015760016000f35b505050565b610599806100996000396000f3fe60806040523480156100195760008061001661034f565b50505b506004361061004a5760003560e01c806312ad8bfc14610058578063bbe8a9b614610092578063c1f6294614610157575b60008061005561034f565b50505b61007e600480360360208110156100775760008061007461034f565b50505b503561018f565b604051901515815260200160405180910390f35b61007e600480360360208110156100b1576000806100ae61034f565b50505b810190602081018135600160201b8111156100d4576000806100d161034f565b50505b8201836020820111156100ef576000806100ec61034f565b50505b803590602001918460208302840111600160201b831117156101195760008061011661034f565b50505b9190808060200260200160405190810160405280939291908181526020018383602002808284376000920191909152509295506102f0945050505050565b61017d600480360360208110156101765760008061017361034f565b50505b5035610333565b60405190815260200160405180910390f35b600080600283604051602001808281526020019150506040516020818303038152906040526040518082805190602001908083835b602083106101e35780518252601f1990920191602091820191016101c4565b6001836020036101000a038019825116818451168082178552505050505050905001915050602060405180830381855a61021b6103ba565b505050505015801561023a573d6000803e3d600061023761034f565b50505b5050506040513d60208110156102585760008061025561034f565b50505b810190808051600081815260208190529094509250604091508290502061027d6104a5565b111561028d5760009150506102eb565b5a610296610505565b600082815260208190526040902081906102ae61054b565b505050807fc8ee7ba45d0c5351df845eda156d523bd6865844a5f2c69df35b757e2f794fa18460405190815260200160405180910390a260019150505b919050565b60006001815b835181101561032c5761031b84828151811061030e57fe5b602002602001015161018f565b61032457600091505b6001016102f6565b5092915050565b60008181526020819052604081206103496104a5565b92915050565b632a2a7adb598160e01b8152600481016020815285602082015260005b8681101561038757808601518282016040015260200161036c565b506020828760640184336000905af158600e01573d6000803e3d6000fd5b3d6001141558600a015760016000f35b505050565b638540661f598160e01b81526103eb565b8080831115610349575090919050565b8080831015610349575090919050565b836004820152846024820152606060448201528660648201526084810160005b8881101561042357808801518282015260200161040b565b506060828960a40184336000905af158600e01573d6000803e3d6000fd5b3d6001141558600a015760016000f35b815160408301513d6000853e8b8b82606087013350600060045af150596104788d3d6103db565b8c0161048481876103cb565b5b828110156104995760008152602001610485565b50929c50505050505050565b6303daa959598160e01b8152836004820152602081602483336000905af158600e01573d6000803e3d6000fd5b3d6001141558600a015760016000f35b8051935060005b6040811015610500576000828201526020016104e9565b505050565b635a98c361598160e01b8152602081600483336000905af158600e01573d6000803e3d6000fd5b3d6001141558600a015760016000f35b805160008252935060206104e9565b6322bd64c0598160e01b8152836004820152846024820152600081604483336000905af158600e01573d6000803e3d6000fd5b3d6001141558600a015760016000f35b6000815260206104e956",
  "linkReferences": {},
  "deployedLinkReferences": {}
}