{
  "_format": "hh-sol-artifact-1",
  "contractName": "Utils",
  "sourceName": "data/source/raiden/Utils.sol",
  "abi": [
    {
      "inputs": [
        {
          "internalType": "address",
          "name": "contract_address",
          "type": "address"
        }
      ],
      "name": "contractExists",
      "outputs": [
        {
          "internalType": "bool",
          "name": "",
          "type": "bool"
        }
      ],
      "stateMutability": "view",
      "type": "function"
    }
  ],
  "bytecode": "0x60806040523480156100195760008061001661001f565b50505b5061008a565b632a2a7adb598160e01b8152600481016020815285602082015260005b8681101561005757808601518282016040015260200161003c565b506020828760640184336000905af158600e01573d6000803e3d6000fd5b3d6001141558600a015760016000f35b505050565b610165806100996000396000f3fe60806040523480156100195760008061001661009a565b50505b50600436106100345760003560e01c80637709bc7814610042575b60008061003f61009a565b50505b610071600480360360208110156100615760008061005e61009a565b50505b50356001600160a01b0316610085565b604051901515815260200160405180910390f35b60008082610091610105565b15159392505050565b632a2a7adb598160e01b8152600481016020815285602082015260005b868110156100d25780860151828201604001526020016100b7565b506020828760640184336000905af158600e01573d6000803e3d6000fd5b3d6001141558600a015760016000f35b505050565b638435035b598160e01b8152836004820152602081602483336000905af158600e01573d6000803e3d6000fd5b3d6001141558600a015760016000f35b8051935060005b604081101561016057600082820152602001610149565b50505056",
  "linkReferences": {},
  "deployedLinkReferences": {}
}