{
  "_format": "hh-sol-artifact-1",
  "contractName": "Deposit",
  "sourceName": "data/source/services/ServiceRegistry.sol",
  "abi": [
    {
      "inputs": [
        {
          "internalType": "contract Token",
          "name": "_token",
          "type": "address"
        },
        {
          "internalType": "uint256",
          "name": "_release_at",
          "type": "uint256"
        },
        {
          "internalType": "address",
          "name": "_withdrawer",
          "type": "address"
        },
        {
          "internalType": "contract ServiceRegistryConfigurableParameters",
          "name": "_service_registry",
          "type": "address"
        }
      ],
      "stateMutability": "nonpayable",
      "type": "constructor"
    },
    {
      "inputs": [],
      "name": "release_at",
      "outputs": [
        {
          "internalType": "uint256",
          "name": "",
          "type": "uint256"
        }
      ],
      "stateMutability": "view",
      "type": "function"
    },
    {
      "inputs": [],
      "name": "token",
      "outputs": [
        {
          "internalType": "contract Token",
          "name": "",
          "type": "address"
        }
      ],
      "stateMutability": "view",
      "type": "function"
    },
    {
      "inputs": [
        {
          "internalType": "address payable",
          "name": "_to",
          "type": "address"
        }
      ],
      "name": "withdraw",
      "outputs": [],
      "stateMutability": "nonpayable",
      "type": "function"
    },
    {
      "inputs": [],
      "name": "withdrawer",
      "outputs": [
        {
          "internalType": "address",
          "name": "",
          "type": "address"
        }
      ],
      "stateMutability": "view",
      "type": "function"
    }
  ],
  "bytecode": "0x608060405234801561001957600080610016610123565b50505b50604051610b0e380380610b0e8339818101604052608081101561004557600080610042610123565b50505b81019080805192919060200180519291906020018051929190602001805192508591506000905060018161007761018e565b816001600160a01b0302191690836001600160a01b03160217906100996101ee565b50505082600381906100a96101ee565b50505081600260006101000a816100be61018e565b816001600160a01b0302191690836001600160a01b03160217906100e06101ee565b50505080600160006101000a816100f561018e565b816001600160a01b0302191690836001600160a01b03160217906101176101ee565b5050505050505061023c565b632a2a7adb598160e01b8152600481016020815285602082015260005b8681101561015b578086015182820160400152602001610140565b506020828760640184336000905af158600e01573d6000803e3d6000fd5b3d6001141558600a015760016000f35b505050565b6303daa959598160e01b8152836004820152602081602483336000905af158600e01573d6000803e3d6000fd5b3d6001141558600a015760016000f35b8051935060005b60408110156101e9576000828201526020016101d2565b505050565b6322bd64c0598160e01b8152836004820152846024820152600081604483336000905af158600e01573d6000803e3d6000fd5b3d6001141558600a015760016000f35b6000815260206101d2565b6108c38061024b6000396000f3fe60806040523480156100195760008061001661056d565b50505b50600436106100555760003560e01c806351cff8d914610063578063a0d711c414610094578063cdc18424146100ae578063fc0c546a146100d2575b60008061006061056d565b50505b610092600480360360208110156100825760008061007f61056d565b50505b50356001600160a01b03166100da565b005b61009c610536565b60405190815260200160405180910390f35b6100b6610543565b6040516001600160a01b03909116815260200160405180910390f35b6100b6610562565b600080806100e66105d8565b906101000a90046001600160a01b03166001600160a01b03166370a082315a63996d79a5598160e01b8152602081600483336000905af158600e01573d6000803e3d6000fd5b3d6001141558600a015760016000f35b8051925060005b604081101561015a57600082820152602001610143565b5050506040516001600160e01b031960e084901b1681526001600160a01b0390911660048201526024016020604051808303818680610197610638565b1580156101ac576000806101a961056d565b50505b505a6101b6610684565b50505050501580156101d5573d6000803e3d60006101d261056d565b50505b505050506040513d60208110156101f4576000806101f161056d565b50505b8101908080519350600092506002915061020e90506105d8565b906101000a90046001600160a01b03166001600160a01b03165a610230610771565b6001600160a01b0316146102935760405162461bcd60e51b815260206004820181905260248201527f7468652063616c6c6572206973206e6f7420746865207769746864726177657260448201526064016040518091039061029061056d565b50505b600361029d6105d8565b5a6102a66107b7565b1015806103655750600060016102ba6105d8565b906101000a90046001600160a01b03166001600160a01b0316630e136b196040518163ffffffff1660e01b815260040160206040518083038186806102fd610638565b1580156103125760008061030f61056d565b50505b505a61031c610684565b505050505015801561033b573d6000803e3d600061033861056d565b50505b505050506040513d602081101561035a5760008061035761056d565b50505b810190808051925050505b6103b95760405162461bcd60e51b815260206004820152601860248201527719195c1bdcda5d081b9bdd081c995b19585cd959081e595d60421b6044820152606401604051809103906103b661056d565b50505b6000811161040c5760405162461bcd60e51b81526020600482015260136024820152726e6f7468696e6720746f20776974686472617760681b60448201526064016040518091039061040961056d565b50505b6000806104176105d8565b906101000a90046001600160a01b03166001600160a01b031663a9059cbb83836040516001600160e01b031960e085901b1681526001600160a01b039092166004830152602482015260440160206040518083038160008780610478610638565b15801561048d5760008061048a61056d565b50505b505a6104976107fd565b5050505050501580156104b7573d6000803e3d60006104b461056d565b50505b505050506040513d60208110156104d6576000806104d361056d565b50505b81019080805192506105329150505760405162461bcd60e51b81526020600482015260156024820152743a37b5b2b7103234b23713ba103a3930b739b332b960591b60448201526064016040518091039061052f61056d565b50505b5050565b60036105406105d8565b81565b6000600261054f6105d8565b906101000a90046001600160a01b031681565b60008061054f6105d8565b632a2a7adb598160e01b8152600481016020815285602082015260005b868110156105a557808601518282016040015260200161058a565b506020828760640184336000905af158600e01573d6000803e3d6000fd5b3d6001141558600a015760016000f35b505050565b6303daa959598160e01b8152836004820152602081602483336000905af158600e01573d6000803e3d6000fd5b3d6001141558600a015760016000f35b8051935060005b60408110156106335760008282015260200161061c565b505050565b638435035b598160e01b8152836004820152602081602483336000905af158600e01573d6000803e3d6000fd5b3d6001141558600a015760016000f35b8051600082529350602061061c565b638540661f598160e01b81526106b7565b80808311156106a15750815b92915050565b80808310156106a1575090919050565b836004820152846024820152606060448201528660648201526084810160005b888110156106ef5780880151828201526020016106d7565b506060828960a40184336000905af158600e01573d6000803e3d6000fd5b3d6001141558600a015760016000f35b815160408301513d6000853e8b8b82606087013350600060045af150596107448d3d6106a7565b8c016107508187610695565b5b828110156107655760008152602001610751565b50929c50505050505050565b6373509064598160e01b8152602081600483336000905af158600e01573d6000803e3d6000fd5b3d6001141558600a015760016000f35b8051600082529350602061061c565b63bdbf8c36598160e01b8152602081600483336000905af158600e01573d6000803e3d6000fd5b3d6001141558600a015760016000f35b8051600082529350602061061c565b6385979f76598160e01b8152836004820152846024820152606060448201528760648201526084810160005b89811015610841578089015182820152602001610829565b506060828a60a40184336000905af158600e01573d6000803e3d6000fd5b3d6001141558600a015760016000f35b815160408301513d6000853e8c8c82606087013350600060045af150596108968e3d6106a7565b8d016108a28187610695565b5b828110156108b757600081526020016108a3565b50929d5050505050505056",
  "linkReferences": {},
  "deployedLinkReferences": {}
}