{
  "_format": "hh-sol-artifact-1",
  "contractName": "ServiceRegistryConfigurableParameters",
  "sourceName": "data/source/services/ServiceRegistry.sol",
  "abi": [
    {
      "inputs": [
        {
          "internalType": "uint256",
          "name": "_price_bump_numerator",
          "type": "uint256"
        },
        {
          "internalType": "uint256",
          "name": "_price_bump_denominator",
          "type": "uint256"
        },
        {
          "internalType": "uint256",
          "name": "_decay_constant",
          "type": "uint256"
        },
        {
          "internalType": "uint256",
          "name": "_min_price",
          "type": "uint256"
        },
        {
          "internalType": "uint256",
          "name": "_registration_duration",
          "type": "uint256"
        }
      ],
      "name": "changeParameters",
      "outputs": [
        {
          "internalType": "bool",
          "name": "_success",
          "type": "bool"
        }
      ],
      "stateMutability": "nonpayable",
      "type": "function"
    },
    {
      "inputs": [],
      "name": "controller",
      "outputs": [
        {
          "internalType": "address",
          "name": "",
          "type": "address"
        }
      ],
      "stateMutability": "view",
      "type": "function"
    },
    {
      "inputs": [],
      "name": "currentPrice",
      "outputs": [
        {
          "internalType": "uint256",
          "name": "",
          "type": "uint256"
        }
      ],
      "stateMutability": "view",
      "type": "function"
    },
    {
      "inputs": [],
      "name": "decay_constant",
      "outputs": [
        {
          "internalType": "uint256",
          "name": "",
          "type": "uint256"
        }
      ],
      "stateMutability": "view",
      "type": "function"
    },
    {
      "inputs": [
        {
          "internalType": "uint256",
          "name": "_set_price",
          "type": "uint256"
        },
        {
          "internalType": "uint256",
          "name": "_seconds_passed",
          "type": "uint256"
        }
      ],
      "name": "decayedPrice",
      "outputs": [
        {
          "internalType": "uint256",
          "name": "",
          "type": "uint256"
        }
      ],
      "stateMutability": "view",
      "type": "function"
    },
    {
      "inputs": [],
      "name": "deprecated",
      "outputs": [
        {
          "internalType": "bool",
          "name": "",
          "type": "bool"
        }
      ],
      "stateMutability": "view",
      "type": "function"
    },
    {
      "inputs": [],
      "name": "min_price",
      "outputs": [
        {
          "internalType": "uint256",
          "name": "",
          "type": "uint256"
        }
      ],
      "stateMutability": "view",
      "type": "function"
    },
    {
      "inputs": [],
      "name": "price_bump_denominator",
      "outputs": [
        {
          "internalType": "uint256",
          "name": "",
          "type": "uint256"
        }
      ],
      "stateMutability": "view",
      "type": "function"
    },
    {
      "inputs": [],
      "name": "price_bump_numerator",
      "outputs": [
        {
          "internalType": "uint256",
          "name": "",
          "type": "uint256"
        }
      ],
      "stateMutability": "view",
      "type": "function"
    },
    {
      "inputs": [],
      "name": "registration_duration",
      "outputs": [
        {
          "internalType": "uint256",
          "name": "",
          "type": "uint256"
        }
      ],
      "stateMutability": "view",
      "type": "function"
    },
    {
      "inputs": [],
      "name": "setDeprecationSwitch",
      "outputs": [
        {
          "internalType": "bool",
          "name": "_success",
          "type": "bool"
        }
      ],
      "stateMutability": "nonpayable",
      "type": "function"
    },
    {
      "inputs": [],
      "name": "set_price",
      "outputs": [
        {
          "internalType": "uint256",
          "name": "",
          "type": "uint256"
        }
      ],
      "stateMutability": "view",
      "type": "function"
    },
    {
      "inputs": [],
      "name": "set_price_at",
      "outputs": [
        {
          "internalType": "uint256",
          "name": "",
          "type": "uint256"
        }
      ],
      "stateMutability": "view",
      "type": "function"
    }
  ],
  "bytecode": "0x6080604052630107ac006003610013610093565b50506103e86004610022610093565b505060016005610030610093565b50506001600661003e610093565b505062ed4e00600761004e610093565b506000905060086001816100606100f5565b8160ff02191690831515021790610075610093565b50505034801561008d5760008061008a610141565b50505b506101ac565b6322bd64c0598160e01b8152836004820152846024820152600081604483336000905af158600e01573d6000803e3d6000fd5b3d6001141558600a015760016000f35b60005b60408110156100f0576000828201526020016100d9565b505050565b6303daa959598160e01b8152836004820152602081602483336000905af158600e01573d6000803e3d6000fd5b3d6001141558600a015760016000f35b805160008252935060206100d9565b632a2a7adb598160e01b8152600481016020815285602082015260005b8681101561017957808601518282016040015260200161015e565b506020828760640184336000905af158600e01573d6000803e3d6000fd5b3d6001141558600a015760016000f35b505050565b610911806101bb6000396000f3fe60806040523480156100195760008061001661072d565b50505b50600436106100b85760003560e01c8063077964ce146100c65780630e136b19146100e057806331000384146100fc5780634d48e3cd1461010457806351cc8599146101305780635236a4e61461016e5780638f43987c146101765780639d1b464a1461017e578063a4a7c9a414610186578063b8af7bca1461018e578063c3ab5fb414610196578063f77c47911461019e578063fdcbb02d146101c2575b6000806100c361072d565b50505b6100ce6101ca565b60405190815260200160405180910390f35b6100e86101d7565b604051901515815260200160405180910390f35b6100ce6101f0565b6100ce600480360360408110156101235760008061012061072d565b50505b50803590602001356101fa565b6100e8600480360360a081101561014f5760008061014c61072d565b50505b5080359060208101359060408101359060608101359060800135610299565b6100ce610342565b6100ce61034c565b6100ce610356565b6100ce6103e2565b6100e86103ec565b6100ce6104a9565b6101a66104b3565b6040516001600160a01b03909116815260200160405180910390f35b6100ce6104d1565b60066101d4610798565b81565b600060086101e3610798565b906101000a900460ff1681565b60016101d4610798565b600081600160281b811061021a576004610212610798565b915050610293565b60006003610226610798565b905060006004820a601802905060006004840a6003850a84600402026002860a6002860a600c0202866003870a60180202850101010190506000818389028161026b57fe5b0490506004610278610798565b81101561028c576004610289610798565b90505b9450505050505b92915050565b600080806102a5610798565b906101000a90046001600160a01b03166001600160a01b03165a6102c76107f3565b6001600160a01b0316146103295760405162461bcd60e51b815260206004820152601c60248201527b31b0b63632b91034b9903737ba103a34329031b7b73a3937b63632b960211b60448201526064016040518091039061032661072d565b50505b61033686868686866104db565b50600195945050505050565b60026101d4610798565b60036101d4610798565b60006002610362610798565b5a61036b610839565b10156103b15760405162461bcd60e51b81526004018080602001828103825260218152602001806108f060219139604001915050604051809103906103ae61072d565b50505b600060026103bd610798565b5a6103c6610839565b0390506103dc60016103d6610798565b826101fa565b91505090565b60076101d4610798565b600080806103f8610798565b906101000a90046001600160a01b03166001600160a01b03165a61041a6107f3565b6001600160a01b03161461047c5760405162461bcd60e51b815260206004820152601c60248201527b31b0b63632b91034b9903737ba103a34329031b7b73a3937b63632b960211b60448201526064016040518091039061047961072d565b50505b60016008818161048a610798565b8160ff0219169083151502179061049f61087f565b5050506001905090565b60046101d4610798565b6000806104be610798565b906101000a90046001600160a01b031681565b60056101d4610798565b6104e361050f565b6104ed858561053e565b6104f682610662565b6104ff83610674565b61050881610721565b5050505050565b610517610356565b80600161052261087f565b5050505a61052e610839565b80600261053961087f565b505050565b6000811161058c5760405162461bcd60e51b815260206004820152600e60248201526d646976696465206279207a65726f60901b60448201526064016040518091039061058961072d565b50505b808210156105e65760405162461bcd60e51b815260206004820152601a602482015279070726963652064756d7020696e7374656164206f662062756d760341b6044820152606401604051809103906105e361072d565b50505b600160281b82106106465760405162461bcd60e51b815260206004820152601f60248201527f70726963652064756d70206e756d657261746f7220697320746f6f206269670060448201526064016040518091039061064361072d565b50505b8180600561065261087f565b505050806006819061050861087f565b8080600461066e61087f565b50505050565b600081116106bc5760405162461bcd60e51b81526004018080602001828103825260228152602001806108ce60229139604001915050604051809103906106b961072d565b50505b600160281b81106107155760405162461bcd60e51b81526020600482015260166024820152751d1bdbc8189a59c8191958d85e4818dbdb9cdd185b9d60521b60448201526064016040518091039061071261072d565b50505b8080600361066e61087f565b8080600761066e61087f565b632a2a7adb598160e01b8152600481016020815285602082015260005b8681101561076557808601518282016040015260200161074a565b506020828760640184336000905af158600e01573d6000803e3d6000fd5b3d6001141558600a015760016000f35b505050565b6303daa959598160e01b8152836004820152602081602483336000905af158600e01573d6000803e3d6000fd5b3d6001141558600a015760016000f35b8051935060005b6040811015610539576000828201526020016107dc565b6373509064598160e01b8152602081600483336000905af158600e01573d6000803e3d6000fd5b3d6001141558600a015760016000f35b805160008252935060206107dc565b63bdbf8c36598160e01b8152602081600483336000905af158600e01573d6000803e3d6000fd5b3d6001141558600a015760016000f35b805160008252935060206107dc565b6322bd64c0598160e01b8152836004820152846024820152600081604483336000905af158600e01573d6000803e3d6000fd5b3d6001141558600a015760016000f35b6000815260206107dc56fe617474656d707420746f20736574207a65726f20646563617920636f6e7374616e74416e20756e646572666c6f7720696e20707269636520636f6d7075746174696f6e",
  "linkReferences": {},
  "deployedLinkReferences": {}
}