{
  "address": "0xE37d878e97ec516225dC151f4A056e23460e177D",
  "abi": [
    {
      "inputs": [
        {
          "internalType": "address",
          "name": "_token_address",
          "type": "address"
        },
        {
          "internalType": "address",
          "name": "_service_registry_address",
          "type": "address"
        },
        {
          "internalType": "address",
          "name": "_udc_address",
          "type": "address"
        },
        {
          "internalType": "address",
          "name": "_token_network_registry_address",
          "type": "address"
        }
      ],
      "stateMutability": "nonpayable",
      "type": "constructor"
    },
    {
      "anonymous": false,
      "inputs": [
        {
          "indexed": false,
          "internalType": "address",
          "name": "token_network_address",
          "type": "address"
        },
        {
          "indexed": false,
          "internalType": "uint256",
          "name": "channel_identifier",
          "type": "uint256"
        },
        {
          "indexed": false,
          "internalType": "uint256",
          "name": "reward_amount",
          "type": "uint256"
        },
        {
          "indexed": true,
          "internalType": "uint256",
          "name": "nonce",
          "type": "uint256"
        },
        {
          "indexed": true,
          "internalType": "address",
          "name": "ms_address",
          "type": "address"
        },
        {
          "indexed": true,
          "internalType": "address",
          "name": "raiden_node_address",
          "type": "address"
        }
      ],
      "name": "NewBalanceProofReceived",
      "type": "event"
    },
    {
      "anonymous": false,
      "inputs": [
        {
          "indexed": true,
          "internalType": "address",
          "name": "ms_address",
          "type": "address"
        },
        {
          "indexed": false,
          "internalType": "uint256",
          "name": "amount",
          "type": "uint256"
        },
        {
          "indexed": true,
          "internalType": "bytes32",
          "name": "reward_identifier",
          "type": "bytes32"
        }
      ],
      "name": "RewardClaimed",
      "type": "event"
    },
    {
      "inputs": [
        {
          "internalType": "uint256",
          "name": "channel_identifier",
          "type": "uint256"
        },
        {
          "internalType": "address",
          "name": "token_network_address",
          "type": "address"
        },
        {
          "internalType": "address",
          "name": "closing_participant",
          "type": "address"
        },
        {
          "internalType": "address",
          "name": "non_closing_participant",
          "type": "address"
        }
      ],
      "name": "claimReward",
      "outputs": [
        {
          "internalType": "bool",
          "name": "",
          "type": "bool"
        }
      ],
      "stateMutability": "nonpayable",
      "type": "function"
    },
    {
      "inputs": [
        {
          "internalType": "address",
          "name": "contract_address",
          "type": "address"
        }
      ],
      "name": "contractExists",
      "outputs": [
        {
          "internalType": "bool",
          "name": "",
          "type": "bool"
        }
      ],
      "stateMutability": "view",
      "type": "function"
    },
    {
      "inputs": [
        {
          "internalType": "uint256",
          "name": "closed_at_block",
          "type": "uint256"
        },
        {
          "internalType": "uint256",
          "name": "settle_timeout",
          "type": "uint256"
        },
        {
          "internalType": "address",
          "name": "participant1",
          "type": "address"
        },
        {
          "internalType": "address",
          "name": "participant2",
          "type": "address"
        },
        {
          "internalType": "address",
          "name": "monitoring_service_address",
          "type": "address"
        }
      ],
      "name": "firstBlockAllowedToMonitor",
      "outputs": [
        {
          "internalType": "uint256",
          "name": "",
          "type": "uint256"
        }
      ],
      "stateMutability": "pure",
      "type": "function"
    },
    {
      "inputs": [
        {
          "internalType": "contract TokenNetwork",
          "name": "token_network",
          "type": "address"
        },
        {
          "internalType": "uint256",
          "name": "channel_identifier",
          "type": "uint256"
        },
        {
          "internalType": "address",
          "name": "closing_participant",
          "type": "address"
        },
        {
          "internalType": "address",
          "name": "non_closing_participant",
          "type": "address"
        },
        {
          "internalType": "address",
          "name": "monitoring_service_address",
          "type": "address"
        }
      ],
      "name": "firstBlockAllowedToMonitorChannel",
      "outputs": [
        {
          "internalType": "uint256",
          "name": "",
          "type": "uint256"
        }
      ],
      "stateMutability": "view",
      "type": "function"
    },
    {
      "inputs": [
        {
          "internalType": "address",
          "name": "closing_participant",
          "type": "address"
        },
        {
          "internalType": "address",
          "name": "non_closing_participant",
          "type": "address"
        },
        {
          "internalType": "bytes32",
          "name": "balance_hash",
          "type": "bytes32"
        },
        {
          "internalType": "uint256",
          "name": "nonce",
          "type": "uint256"
        },
        {
          "internalType": "bytes32",
          "name": "additional_hash",
          "type": "bytes32"
        },
        {
          "internalType": "bytes",
          "name": "closing_signature",
          "type": "bytes"
        },
        {
          "internalType": "bytes",
          "name": "non_closing_signature",
          "type": "bytes"
        },
        {
          "internalType": "uint256",
          "name": "reward_amount",
          "type": "uint256"
        },
        {
          "internalType": "address",
          "name": "token_network_address",
          "type": "address"
        },
        {
          "internalType": "bytes",
          "name": "reward_proof_signature",
          "type": "bytes"
        }
      ],
      "name": "monitor",
      "outputs": [],
      "stateMutability": "nonpayable",
      "type": "function"
    },
    {
      "inputs": [],
      "name": "service_registry",
      "outputs": [
        {
          "internalType": "contract ServiceRegistry",
          "name": "",
          "type": "address"
        }
      ],
      "stateMutability": "view",
      "type": "function"
    },
    {
      "inputs": [],
      "name": "token",
      "outputs": [
        {
          "internalType": "contract Token",
          "name": "",
          "type": "address"
        }
      ],
      "stateMutability": "view",
      "type": "function"
    },
    {
      "inputs": [],
      "name": "token_network_registry",
      "outputs": [
        {
          "internalType": "contract TokenNetworkRegistry",
          "name": "",
          "type": "address"
        }
      ],
      "stateMutability": "view",
      "type": "function"
    },
    {
      "inputs": [],
      "name": "user_deposit",
      "outputs": [
        {
          "internalType": "contract UserDeposit",
          "name": "",
          "type": "address"
        }
      ],
      "stateMutability": "view",
      "type": "function"
    }
  ],
  "transactionHash": "0xf89f317d4e1203a609b7049d2f6f93de2127315e6e047953b05c959748a37eda",
  "args": [
    "0x806E55Dc852609176F187a5C515393C923179d0C",
    "0x9b4d7E59f6cA64f37864845966E106cfbe6Eaa10",
    "0xc3Fbcb0aADdFE6399e04fCADa42F92C9104Cb133",
    "0xEBD114D78aCe713DBA75e649eb763Eb9A4DeddaA"
  ],
  "solcInputHash": "d801cd5192b29c16d8f34c547e4f6dd2",
  "bytecode": "0x60806040523480156200001c576000806200001962000554565b50505b506040516200251c3803806200251c833981810160405260808110156200004d576000806200004a62000554565b50505b810190808051929190602001805192919060200180519291906020018051925050506001600160a01b038416620000d55760405162461bcd60e51b815260206004820152601560248201527f546f6b656e2061742061646472657373207a65726f0000000000000000000000604482015260640160405180910390620000d262000554565b50505b6001600160a01b0383166200013b5760405162461bcd60e51b815260206004820152601f60248201527f5365727669636552656769737472792061742061646472657373207a65726f006044820152606401604051809103906200013862000554565b50505b6001600160a01b038216620001a15760405162461bcd60e51b815260206004820152601360248201527f5544432061742061646472657373207a65726f000000000000000000000000006044820152606401604051809103906200019e62000554565b50505b620001ac846200053d565b620001fc5760405162461bcd60e51b8152602060048201526011602482015270746f6b656e20686173206e6f20636f646560781b604482015260640160405180910390620001f962000554565b50505b62000207836200053d565b620002635760405162461bcd60e51b815260206004820152601b60248201527f53657276696365526567697374727920686173206e6f20636f646500000000006044820152606401604051809103906200026062000554565b50505b6200026e826200053d565b620002bc5760405162461bcd60e51b815260206004820152600f60248201526e55444320686173206e6f20636f646560881b604482015260640160405180910390620002b962000554565b50505b620002c7816200053d565b620003235760405162461bcd60e51b815260206004820181905260248201527f546f6b656e4e6574776f726b526567697374727920686173206e6f20636f64656044820152606401604051809103906200032062000554565b50505b83600060018162000333620005c1565b816001600160a01b0302191690836001600160a01b03160217906200035762000623565b50505082600160006101000a816200036e620005c1565b816001600160a01b0302191690836001600160a01b03160217906200039262000623565b50505081600260006101000a81620003a9620005c1565b816001600160a01b0302191690836001600160a01b0316021790620003cd62000623565b50505080600360006101000a81620003e4620005c1565b816001600160a01b0302191690836001600160a01b03160217906200040862000623565b5050506000806000906200041b620005c1565b906101000a90046001600160a01b03166001600160a01b03166318160ddd6040518163ffffffff1660e01b815260040160206040518083038186806200046062000672565b15801562000478576000806200047562000554565b50505b505a62000484620006bf565b5050505050158015620004a6573d6000803e3d6000620004a362000554565b50505b505050506040513d6020811015620004c857600080620004c562000554565b50505b810190808051939093119250620005339150505760405162461bcd60e51b815260206004820152601c60248201527f546f6b656e2077697468207a65726f20746f74616c20737570706c79000000006044820152606401604051809103906200053062000554565b50505b50505050620007b7565b600080826200054b62000672565b15159392505050565b632a2a7adb598160e01b8152600481016020815285602082015260005b868110156200058e57808601518282016040015260200162000571565b506020828760640184336000905af158600e01573d6000803e3d6000fd5b3d6001141558600a015760016000f35b505050565b6303daa959598160e01b8152836004820152602081602483336000905af158600e01573d6000803e3d6000fd5b3d6001141558600a015760016000f35b8051935060005b60408110156200061e5760008282015260200162000605565b505050565b6322bd64c0598160e01b8152836004820152846024820152600081604483336000905af158600e01573d6000803e3d6000fd5b3d6001141558600a015760016000f35b60008152602062000605565b638435035b598160e01b8152836004820152602081602483336000905af158600e01573d6000803e3d6000fd5b3d6001141558600a015760016000f35b8051600082529350602062000605565b638540661f598160e01b8152620006f5565b8080831115620006de5750815b92915050565b8080831015620006de575090919050565b836004820152846024820152606060448201528660648201526084810160005b888110156200072f57808801518282015260200162000715565b506060828960a40184336000905af158600e01573d6000803e3d6000fd5b3d6001141558600a015760016000f35b815160408301513d6000853e8b8b82606087013350600060045af15059620007868d3d620006e4565b8c01620007948187620006d1565b5b82811015620007ab576000815260200162000795565b50929c50505050505050565b611d5580620007c76000396000f3fe608060405234801561001957600080610016611963565b50505b506004361061008c5760003560e01c80630e7dfb731461009a57806360df33d8146100f5578063637d89d4146101565780636766923e1461017a5780637709bc78146101c757806381c6dac2146101f6578063b4238f4a146101fe578063d3b6c08014610206578063fc0c546a1461044f575b600080610097611963565b50505b6100e1600480360360808110156100b9576000806100b6611963565b50505b508035906001600160a01b036020820135811691604081013582169160609091013516610457565b604051901515815260200160405180910390f35b610144600480360360a081101561011457600080610111611963565b50505b506001600160a01b038135811691602081013591604082013581169160608101358216916080909101351661093e565b60405190815260200160405180910390f35b61015e610ca8565b6040516001600160a01b03909116815260200160405180910390f35b610144600480360360a081101561019957600080610196611963565b50505b508035906020810135906001600160a01b036040820135811691606081013582169160809091013516610cc7565b6100e1600480360360208110156101e6576000806101e3611963565b50505b50356001600160a01b0316610de1565b61015e610df6565b61015e610e02565b61044d600480360361014081101561022657600080610223611963565b50505b6001600160a01b0382358116926020810135909116916040820135916060810135916080820135919081019060c0810160a0820135600160201b81111561027557600080610272611963565b50505b8201836020820111156102905760008061028d611963565b50505b803590602001918460018302840111600160201b831117156102ba576000806102b7611963565b50505b91908080601f01602080910402602001604051908101604052818152929190602084018383808284376000920191909152509295949360208101935035915050600160201b81111561031457600080610311611963565b50505b82018360208201111561032f5760008061032c611963565b50505b803590602001918460018302840111600160201b8311171561035957600080610356611963565b50505b91908080601f016020809104026020016040519081016040528181529291906020840183838082843760009201919091525092958435956001600160a01b0360208701351695919450925060608101915060400135600160201b8111156103c8576000806103c5611963565b50505b8201836020820111156103e3576000806103e0611963565b50505b803590602001918460018302840111600160201b8311171561040d5760008061040a611963565b50505b91908080601f0160208091040260200160405190810160405281815292919060208401838380828437600092019190915250929550610e0e945050505050565b005b61015e611165565b60008381868260405160200180838152602001826001600160a01b031660601b815260140192505050604051602081830303815290604052805190602001209050600080836001600160a01b031663838d6e058a89896040516001600160e01b031960e086901b16815260048101939093526001600160a01b039182166024840152166044820152606401604080518083038186806104f46119ce565b15801561050957600080610506611963565b50505b505a610513611a2e565b5050505050158015610532573d6000803e3d600061052f611963565b50505b505050506040513d60408110156105515760008061054e611963565b50505b8101908080519291906020018051955092935060029250610570915050565b82600481111561057c57fe5b14806105935750600382600481111561059157fe5b145b806105a9575060048260048111156105a757fe5b145b6105fc5760405162461bcd60e51b8152602060048201526017602482015276746f6f206561726c79206368616e6e656c20737461746560481b6044820152606401604051809103906105f9611963565b50505b5a610605611b19565b811061065a5760405162461bcd60e51b815260206004820152601760248201527618da185b9b995b081b9bdd081cd95d1d1b1959081e595d604a1b604482015260640160405180910390610657611963565b50505b6000838152600460205260408120905060008060028301610679611b5f565b906101000a90046001600160a01b03166001600160a01b031614156106e55760405162461bcd60e51b81526020600482015260156024820152747265776172645f73656e646572206973207a65726f60581b6044820152606401604051809103906106e2611963565b50505b600060026106f1611b5f565b6001600160a01b036101009290920a90041663beabacc8600060028401610716611b5f565b906101000a90046001600160a01b031683600301600090610735611b5f565b906101000a90046001600160a01b031684600001610751611b5f565b6040516001600160e01b031960e086901b1681526001600160a01b03938416600482015291909216602482015260448101919091526064016020604051808303816000878061079e6119ce565b1580156107b3576000806107b0611963565b50505b505a6107bd611bab565b5050505050501580156107dd573d6000803e3d60006107da611963565b50505b505050506040513d60208110156107fc576000806107f9611963565b50505b81019080805192506108579150505760405162461bcd60e51b81526020600482015260146024820152732aa221903234b2103737ba103a3930b739b332b960611b604482015260640160405180910390610854611963565b50505b83600060038301610866611b5f565b6001600160a01b036101009290920a9004167fe413caa6d70a6d9b51c2af2575a2914490f614355049af8ae7cde5caab9fd201836108a2611b5f565b60405190815260200160405180910390a36000848152600460205260409020600080826108cd611c71565b5050600182016000906108de611c71565b5050600282016001816108ef611b5f565b906001600160a01b0302191690610904611c71565b505060038201600181610915611b5f565b906001600160a01b030219169061092a611c71565b5060019d9c50505050505050505050505050565b600080600161094b611b5f565b906101000a90046001600160a01b03166001600160a01b031663ebc00c05836040516001600160e01b031960e084901b1681526001600160a01b03909116600482015260240160206040518083038186806109a46119ce565b1580156109b9576000806109b6611963565b50505b505a6109c3611a2e565b50505050501580156109e2573d6000803e3d60006109df611963565b50505b505050506040513d6020811015610a01576000806109fe611963565b50505b8101908080519250610a5e9150505760405162461bcd60e51b81526020600482015260166024820152751cd95c9d9a58d9481b9bdd081c9959da5cdd195c995960521b604482015260640160405180910390610a5b611963565b50505b600080876001600160a01b031663838d6e058888886040516001600160e01b031960e086901b16815260048101939093526001600160a01b03918216602484015216604482015260640160408051808303818680610aba6119ce565b158015610acf57600080610acc611963565b50505b505a610ad9611a2e565b5050505050158015610af8573d6000803e3d6000610af5611963565b50505b505050506040513d6040811015610b1757600080610b14611963565b50505b8101908080519291906020018051955092935060029250610b36915050565b826004811115610b4257fe5b14610b915760405162461bcd60e51b815260206004820152601260248201527118da185b9b995b081b9bdd0818db1bdcd95960721b604482015260640160405180910390610b8e611963565b50505b6000886001600160a01b031663b8378f756040518163ffffffff1660e01b81526004016020604051808303818680610bc76119ce565b158015610bdc57600080610bd9611963565b50505b505a610be6611a2e565b5050505050158015610c05573d6000803e3d6000610c02611963565b50505b505050506040513d6020811015610c2457600080610c21611963565b50505b810190808051935050505080821015610c8a5760405162461bcd60e51b815260206004820152601b60248201527a3a37b7903637bb9039b2ba3a363290313637b1b590373ab6b132b960291b604482015260640160405180910390610c87611963565b50505b808203610c9a81838a8a8a610cc7565b9a9950505050505050505050565b60006002610cb4611b5f565b906101000a90046001600160a01b031681565b6000600080516020611d358339815191528510610d335760405162461bcd60e51b815260206004820152601e60248201527f6d616c6963696f75736c792062696720736574746c652074696d656f75740000604482015260640160405180910390610d30611963565b50505b600080516020611d358339815191528610610d9d5760405162461bcd60e51b815260206004820152601f60248201527f6d616c6963696f75736c792062696720636c6f7365645f61745f626c6f636b00604482015260640160405180910390610d9a611963565b50505b601e6050606487830281900489019060328902046000816001600160a01b038a81168a8216019089160181610dce57fe5b06929092019a9950505050505050505050565b60008082610ded6119ce565b15159392505050565b60006001610cb4611b5f565b60006003610cb4611b5f565b610e26828b8b868b5a610e1f611cbf565b8a88611170565b8160006001600160a01b03821663938bcd678d8d6040516001600160e01b031960e085901b1681526001600160a01b039283166004820152911660248201526044016020604051808303818680610e7b6119ce565b158015610e9057600080610e8d611963565b50505b505a610e9a611a2e565b5050505050158015610eb9573d6000803e3d6000610eb6611963565b50505b505050506040513d6020811015610ed857600080610ed5611963565b50505b8101908080519350610efb92508491508390508e8e5a610ef6611cbf565b61093e565b5a610f04611b19565b1015610f585760405162461bcd60e51b81526020600482015260166024820152753737ba1030b63637bbb2b2103a379036b7b734ba37b960511b604482015260640160405180910390610f55611963565b50505b816001600160a01b031663fadc554b828e8e8e8e8e8e8e6040518963ffffffff1660e01b815260040180898152602001886001600160a01b03168152602001876001600160a01b031681526020018681526020018581526020018481526020018060200180602001838103835285818151815260200191508051906020019080838360005b83811015610ff5578082015183820152602001610fdd565b50505050905090810190601f1680156110225780820380516001836020036101000a031916815260200191505b50838103825284818151815260200191508051906020019080838360005b83811015611058578082015183820152602001611040565b50505050905090810190601f1680156110855780820380516001836020036101000a031916815260200191505b509a5050505050505050505050600060405180830381600087806110a76119ce565b1580156110bc576000806110b9611963565b50505b505a6110c6611bab565b5050505050501580156110e6573d6000803e3d60006110e3611963565b50505b505050508a6001600160a01b03165a6110fd611cbf565b6001600160a01b03168a7f486d5933a2980e097e7c32c7fe217158facf1a3973bac8235ac6c8b0e77d3dff87858a60405180846001600160a01b03168152602001838152602001828152602001935050505060405180910390a4505050505050505050505050565b600080610cb4611b5f565b8760006001600160a01b03821663fc0c546a6040518163ffffffff1660e01b815260040160206040518083038186806111a76119ce565b1580156111bc576000806111b9611963565b50505b505a6111c6611a2e565b50505050501580156111e5573d6000803e3d60006111e2611963565b50505b505050506040513d602081101561120457600080611201611963565b50505b810190808051935050506001600160a01b038316905060006003611226611b5f565b906101000a90046001600160a01b03166001600160a01b0316630fabd9e7836040516001600160e01b031960e084901b1681526001600160a01b039091166004820152602401602060405180830381868061127f6119ce565b15801561129457600080611291611963565b50505b505a61129e611a2e565b50505050501580156112bd573d6000803e3d60006112ba611963565b50505b505050506040513d60208110156112dc576000806112d9611963565b50505b8101908080516001600160a01b03169390931492506113449150505760405162461bcd60e51b8152602060048201526014602482015273556e6b6e6f776e20546f6b656e4e6574776f726b60601b604482015260640160405180910390611341611963565b50505b6000826001600160a01b031663938bcd678b8b6040516001600160e01b031960e085901b1681526001600160a01b0392831660048201529116602482015260440160206040518083038186806113986119ce565b1580156113ad576000806113aa611963565b50505b505a6113b7611a2e565b50505050501580156113d6573d6000803e3d60006113d3611963565b50505b505050506040513d60208110156113f5576000806113f2611963565b50505b8101908080519350600092506114ae9150506001600160a01b038516633af973b16040518163ffffffff1660e01b8152600401602060405180830381868061143b6119ce565b1580156114505760008061144d611963565b50505b505a61145a611a2e565b5050505050158015611479573d6000803e3d6000611476611963565b50505b505050506040513d602081101561149857600080611495611963565b50505b81019080805192508f91508d9050898d8a6116a0565b9050896001600160a01b0316816001600160a01b0316146115115760405162461bcd60e51b815260206004820152601060248201526f2130b2103932bbb0b93210383937b7b360811b60448201526064016040518091039061150e611963565b50505b6000828d60405160200180838152602001826001600160a01b031660601b8152601401925050506040516020818303038152906040528051906020012060008181526004602052909150604081209050898160010161156e611b5f565b106115b65760405162461bcd60e51b815260206004820152600b60248201526a7374616c65206e6f6e636560a81b6044820152606401604051809103906115b3611963565b50505b60405180608001604052808c81526020018b81526020018d6001600160a01b031681526020018a6001600160a01b031681525060046000848152602001908152602001600020815181611607611c71565b505060208201518160010161161a611c71565b5050604082015160028201600181611630611b5f565b816001600160a01b0302191690836001600160a01b0316021790611652611c71565b505050606082015160038201600181611669611b5f565b816001600160a01b0302191690836001600160a01b031602179061168b611c71565b50505050505050505050505050505050505050565b6000805a63996d79a5598160e01b8152602081600483336000905af158600e01573d6000803e3d6000fd5b3d6001141558600a015760016000f35b8051925060005b60408110156116f9576000828201526020016116e2565b508a9150600690508989898960405160200180807f19457468657265756d205369676e6564204d6573736167653a0a323231000000815250601d01886001600160a01b031660601b8152601401878152602001868152602001856001600160a01b031660601b8152601401846001600160a01b031660601b815260140183805190602001908083835b602083106117a15780518252601f199092019160209182019101611782565b6001836020036101000a038019825116818451161790925250505091909101928352505060200195506040945050505050516020818303038152906040528051906020012090506117f28184611858565b9150856001600160a01b0316826001600160a01b03161461184d5760405162461bcd60e51b815260040180806020018281038252602f815260200180611d06602f91396040019150506040518091039061184a611963565b50505b509695505050505050565b600081516041146118715760008061186e611963565b50505b60008060006020850151925060408501519150606085015160001a9050601b81101561189b57601b015b8060ff16601b14806118b057508060ff16601c145b6118c2576000806118bf611963565b50505b60018682858560405160008152602001604052604051808581526020018460ff1681526020018381526020018281526020019450505050506020604051602081039080840390855a611912611a2e565b5050505050158015611931573d6000803e3d600061192e611963565b50505b5050506020604051035193506001600160a01b03841661195957600080611956611963565b50505b5050505b92915050565b632a2a7adb598160e01b8152600481016020815285602082015260005b8681101561199b578086015182820160400152602001611980565b506020828760640184336000905af158600e01573d6000803e3d6000fd5b3d6001141558600a015760016000f35b505050565b638435035b598160e01b8152836004820152602081602483336000905af158600e01573d6000803e3d6000fd5b3d6001141558600a015760016000f35b8051935060005b6040811015611a2957600082820152602001611a12565b505050565b638540661f598160e01b8152611a5f565b808083111561195d575090919050565b808083101561195d575090919050565b836004820152846024820152606060448201528660648201526084810160005b88811015611a97578088015182820152602001611a7f565b506060828960a40184336000905af158600e01573d6000803e3d6000fd5b3d6001141558600a015760016000f35b815160408301513d6000853e8b8b82606087013350600060045af15059611aec8d3d611a4f565b8c01611af88187611a3f565b5b82811015611b0d5760008152602001611af9565b50929c50505050505050565b635a98c361598160e01b8152602081600483336000905af158600e01573d6000803e3d6000fd5b3d6001141558600a015760016000f35b80516000825293506020611a12565b6303daa959598160e01b8152836004820152602081602483336000905af158600e01573d6000803e3d6000fd5b3d6001141558600a015760016000f35b80516000825293506020611a12565b6385979f76598160e01b8152836004820152846024820152606060448201528760648201526084810160005b89811015611bef578089015182820152602001611bd7565b506060828a60a40184336000905af158600e01573d6000803e3d6000fd5b3d6001141558600a015760016000f35b815160408301513d6000853e8c8c82606087013350600060045af15059611c448e3d611a4f565b8d01611c508187611a3f565b5b82811015611c655760008152602001611c51565b50929d50505050505050565b6322bd64c0598160e01b8152836004820152846024820152600081604483336000905af158600e01573d6000803e3d6000fd5b3d6001141558600a015760016000f35b600081526020611a12565b6373509064598160e01b8152602081600483336000905af158600e01573d6000803e3d6000fd5b3d6001141558600a015760016000f35b80516000825293506020611a1256fe5265776172642070726f6f6620776974682077726f6e67206e6f6e5f636c6f73696e675f7061727469636970616e74028f5c28f5c28f5c28f5c28f5c28f5c28f5c28f5c28f5c28f5c28f5c28f5c28f",
  "devdoc": {
    "kind": "dev",
    "methods": {
      "claimReward(uint256,address,address,address)": {
        "params": {
          "closing_participant": "Address of the participant of the channel that called close",
          "non_closing_participant": "The other participant of the channel",
          "token_network_address": "Address of the Token Network in which the channel exists"
        }
      },
      "constructor": {
        "params": {
          "_service_registry_address": "The address of the ServiceRegistry contract",
          "_token_address": "The address of the token to use for rewards",
          "_token_network_registry_address": "The address of the TokenNetworkRegistry for authenticating TokenNetworks"
        }
      },
      "contractExists(address)": {
        "params": {
          "contract_address": "The address to check whether a contract is deployed or not"
        },
        "returns": {
          "_0": "True if a contract exists, false otherwise"
        }
      },
      "monitor(address,address,bytes32,uint256,bytes32,bytes,bytes,uint256,address,bytes)": {
        "params": {
          "nonce": "Strictly monotonic value used to order BPs omitting PB specific params, since these will not be provided in the future",
          "reward_amount": "Amount of tokens to be rewarded",
          "reward_proof_signature": "The signature of the signed reward proof",
          "token_network_address": "Address of the Token Network in which the channel being monitored exists."
        }
      }
    },
    "version": 1
  },
  "userdoc": {
    "kind": "user",
    "methods": {
      "claimReward(uint256,address,address,address)": {
        "notice": "Called after a monitored channel is settled in order for MS to claim the reward Can be called once per settled channel by everyone on behalf of MS"
      },
      "constructor": {
        "notice": "Set the default values for the smart contract"
      },
      "contractExists(address)": {
        "notice": "Check if a contract exists"
      },
      "monitor(address,address,bytes32,uint256,bytes32,bytes,bytes,uint256,address,bytes)": {
        "notice": "Called by a registered MS, when providing a new balance proof to a monitored channel. Can be called multiple times by different registered MSs as long as the BP provided is newer than the current newest registered BP."
      }
    },
    "version": 1
  },
  "storageLayout": {
    "storage": [
      {
        "astId": 3122,
        "contract": "data/source/services/MonitoringService.sol:MonitoringService",
        "label": "token",
        "offset": 0,
        "slot": "0",
        "type": "t_contract(Token)624"
      },
      {
        "astId": 3124,
        "contract": "data/source/services/MonitoringService.sol:MonitoringService",
        "label": "service_registry",
        "offset": 0,
        "slot": "1",
        "type": "t_contract(ServiceRegistry)4968"
      },
      {
        "astId": 3126,
        "contract": "data/source/services/MonitoringService.sol:MonitoringService",
        "label": "user_deposit",
        "offset": 0,
        "slot": "2",
        "type": "t_contract(UserDeposit)5467"
      },
      {
        "astId": 3128,
        "contract": "data/source/services/MonitoringService.sol:MonitoringService",
        "label": "token_network_registry",
        "offset": 0,
        "slot": "3",
        "type": "t_contract(TokenNetworkRegistry)3087"
      },
      {
        "astId": 3132,
        "contract": "data/source/services/MonitoringService.sol:MonitoringService",
        "label": "rewards",
        "offset": 0,
        "slot": "4",
        "type": "t_mapping(t_bytes32,t_struct(Reward)3141_storage)"
      }
    ],
    "types": {
      "t_address": {
        "encoding": "inplace",
        "label": "address",
        "numberOfBytes": "20"
      },
      "t_bytes32": {
        "encoding": "inplace",
        "label": "bytes32",
        "numberOfBytes": "32"
      },
      "t_contract(ServiceRegistry)4968": {
        "encoding": "inplace",
        "label": "contract ServiceRegistry",
        "numberOfBytes": "20"
      },
      "t_contract(Token)624": {
        "encoding": "inplace",
        "label": "contract Token",
        "numberOfBytes": "20"
      },
      "t_contract(TokenNetworkRegistry)3087": {
        "encoding": "inplace",
        "label": "contract TokenNetworkRegistry",
        "numberOfBytes": "20"
      },
      "t_contract(UserDeposit)5467": {
        "encoding": "inplace",
        "label": "contract UserDeposit",
        "numberOfBytes": "20"
      },
      "t_mapping(t_bytes32,t_struct(Reward)3141_storage)": {
        "encoding": "mapping",
        "key": "t_bytes32",
        "label": "mapping(bytes32 => struct MonitoringService.Reward)",
        "numberOfBytes": "32",
        "value": "t_struct(Reward)3141_storage"
      },
      "t_struct(Reward)3141_storage": {
        "encoding": "inplace",
        "label": "struct MonitoringService.Reward",
        "members": [
          {
            "astId": 3134,
            "contract": "data/source/services/MonitoringService.sol:MonitoringService",
            "label": "reward_amount",
            "offset": 0,
            "slot": "0",
            "type": "t_uint256"
          },
          {
            "astId": 3136,
            "contract": "data/source/services/MonitoringService.sol:MonitoringService",
            "label": "nonce",
            "offset": 0,
            "slot": "1",
            "type": "t_uint256"
          },
          {
            "astId": 3138,
            "contract": "data/source/services/MonitoringService.sol:MonitoringService",
            "label": "reward_sender_address",
            "offset": 0,
            "slot": "2",
            "type": "t_address"
          },
          {
            "astId": 3140,
            "contract": "data/source/services/MonitoringService.sol:MonitoringService",
            "label": "monitoring_service_address",
            "offset": 0,
            "slot": "3",
            "type": "t_address"
          }
        ],
        "numberOfBytes": "128"
      },
      "t_uint256": {
        "encoding": "inplace",
        "label": "uint256",
        "numberOfBytes": "32"
      }
    }
  }
}