{
  "address": "0x3CD189b2FC57BA8456C8060a2B2dDb054B0F4baF",
  "abi": [
    {
      "inputs": [
        {
          "internalType": "address",
          "name": "_deposit_contract",
          "type": "address"
        },
        {
          "internalType": "uint256",
          "name": "_chain_id",
          "type": "uint256"
        },
        {
          "internalType": "address",
          "name": "_service_registry_contract",
          "type": "address"
        }
      ],
      "stateMutability": "nonpayable",
      "type": "constructor"
    },
    {
      "anonymous": false,
      "inputs": [
        {
          "indexed": false,
          "internalType": "address",
          "name": "sender",
          "type": "address"
        },
        {
          "indexed": true,
          "internalType": "address",
          "name": "receiver",
          "type": "address"
        },
        {
          "indexed": false,
          "internalType": "uint256",
          "name": "expiration_block",
          "type": "uint256"
        },
        {
          "indexed": false,
          "internalType": "uint256",
          "name": "transferred",
          "type": "uint256"
        }
      ],
      "name": "Claimed",
      "type": "event"
    },
    {
      "inputs": [
        {
          "internalType": "address[]",
          "name": "senders",
          "type": "address[]"
        },
        {
          "internalType": "address[]",
          "name": "receivers",
          "type": "address[]"
        },
        {
          "internalType": "uint256[]",
          "name": "amounts",
          "type": "uint256[]"
        },
        {
          "internalType": "uint256[]",
          "name": "expiration_blocks",
          "type": "uint256[]"
        },
        {
          "internalType": "address",
          "name": "one_to_n_address",
          "type": "address"
        },
        {
          "internalType": "bytes",
          "name": "signatures",
          "type": "bytes"
        }
      ],
      "name": "bulkClaim",
      "outputs": [
        {
          "internalType": "uint256",
          "name": "",
          "type": "uint256"
        }
      ],
      "stateMutability": "nonpayable",
      "type": "function"
    },
    {
      "inputs": [],
      "name": "chain_id",
      "outputs": [
        {
          "internalType": "uint256",
          "name": "",
          "type": "uint256"
        }
      ],
      "stateMutability": "view",
      "type": "function"
    },
    {
      "inputs": [
        {
          "internalType": "address",
          "name": "sender",
          "type": "address"
        },
        {
          "internalType": "address",
          "name": "receiver",
          "type": "address"
        },
        {
          "internalType": "uint256",
          "name": "amount",
          "type": "uint256"
        },
        {
          "internalType": "uint256",
          "name": "expiration_block",
          "type": "uint256"
        },
        {
          "internalType": "address",
          "name": "one_to_n_address",
          "type": "address"
        },
        {
          "internalType": "bytes",
          "name": "signature",
          "type": "bytes"
        }
      ],
      "name": "claim",
      "outputs": [
        {
          "internalType": "uint256",
          "name": "",
          "type": "uint256"
        }
      ],
      "stateMutability": "nonpayable",
      "type": "function"
    },
    {
      "inputs": [
        {
          "internalType": "address",
          "name": "contract_address",
          "type": "address"
        }
      ],
      "name": "contractExists",
      "outputs": [
        {
          "internalType": "bool",
          "name": "",
          "type": "bool"
        }
      ],
      "stateMutability": "view",
      "type": "function"
    },
    {
      "inputs": [],
      "name": "deposit_contract",
      "outputs": [
        {
          "internalType": "contract UserDeposit",
          "name": "",
          "type": "address"
        }
      ],
      "stateMutability": "view",
      "type": "function"
    },
    {
      "inputs": [],
      "name": "service_registry_contract",
      "outputs": [
        {
          "internalType": "contract ServiceRegistry",
          "name": "",
          "type": "address"
        }
      ],
      "stateMutability": "view",
      "type": "function"
    },
    {
      "inputs": [
        {
          "internalType": "bytes32",
          "name": "",
          "type": "bytes32"
        }
      ],
      "name": "settled_sessions",
      "outputs": [
        {
          "internalType": "uint256",
          "name": "",
          "type": "uint256"
        }
      ],
      "stateMutability": "view",
      "type": "function"
    }
  ],
  "transactionHash": "0xac484db21957067edbfd10140a0df9c548ab509118b45f05051a15b550926c1e",
  "args": [
    "0xc3Fbcb0aADdFE6399e04fCADa42F92C9104Cb133",
    69,
    "0x9b4d7E59f6cA64f37864845966E106cfbe6Eaa10"
  ],
  "solcInputHash": "d801cd5192b29c16d8f34c547e4f6dd2",
  "bytecode": "0x60806040523480156200001c5760008062000019620000f6565b50505b506040516200141838038062001418833981810160405260608110156200004d576000806200004a620000f6565b50505b810190808051929190602001805192919060200180519250849150600090506001816200007962000163565b816001600160a01b0302191690836001600160a01b03160217906200009d620001c5565b5050508160028190620000af620001c5565b50505080600160006101000a81620000c662000163565b816001600160a01b0302191690836001600160a01b0316021790620000ea620001c5565b50505050505062000214565b632a2a7adb598160e01b8152600481016020815285602082015260005b868110156200013057808601518282016040015260200162000113565b506020828760640184336000905af158600e01573d6000803e3d6000fd5b3d6001141558600a015760016000f35b505050565b6303daa959598160e01b8152836004820152602081602483336000905af158600e01573d6000803e3d6000fd5b3d6001141558600a015760016000f35b8051935060005b6040811015620001c057600082820152602001620001a7565b505050565b6322bd64c0598160e01b8152836004820152846024820152600081604483336000905af158600e01573d6000803e3d6000fd5b3d6001141558600a015760016000f35b600081526020620001a7565b6111f480620002246000396000f3fe608060405234801561001957600080610016610e32565b50505b50600436106100765760003560e01c80633af973b1146100845780633ea6b5b41461009e578063631b4903146100c25780637709bc78146101b657806399ccb9fe146101f9578063c7ae4e2c14610444578063dc291e571461046a575b600080610081610e32565b50505b61008c610472565b60405190815260200160405180910390f35b6100a661047f565b6040516001600160a01b03909116815260200160405180910390f35b61008c600480360360c08110156100e1576000806100de610e32565b50505b6001600160a01b038235811692602081013582169260408201359260608301359260808101359091169181019060c0810160a0820135600160201b8111156101315760008061012e610e32565b50505b82018360208201111561014c57600080610149610e32565b50505b803590602001918460018302840111600160201b8311171561017657600080610173610e32565b50505b91908080601f016020809104026020016040519081016040528181529291906020840183838082843760009201919091525092955061049d945050505050565b6101e5600480360360208110156101d5576000806101d2610e32565b50505b50356001600160a01b03166109e6565b604051901515815260200160405180910390f35b61008c600480360360c081101561021857600080610215610e32565b50505b810190602081018135600160201b81111561023b57600080610238610e32565b50505b82018360208201111561025657600080610253610e32565b50505b803590602001918460208302840111600160201b831117156102805760008061027d610e32565b50505b919390929091602081019035600160201b8111156102a6576000806102a3610e32565b50505b8201836020820111156102c1576000806102be610e32565b50505b803590602001918460208302840111600160201b831117156102eb576000806102e8610e32565b50505b919390929091602081019035600160201b8111156103115760008061030e610e32565b50505b82018360208201111561032c57600080610329610e32565b50505b803590602001918460208302840111600160201b8311171561035657600080610353610e32565b50505b919390929091602081019035600160201b81111561037c57600080610379610e32565b50505b82018360208201111561039757600080610394610e32565b50505b803590602001918460208302840111600160201b831117156103c1576000806103be610e32565b50505b919390926001600160a01b0383351692604081019060200135600160201b8111156103f4576000806103f1610e32565b50505b82018360208201111561040f5760008061040c610e32565b50505b803590602001918460018302840111600160201b8311171561043957600080610436610e32565b50505b5090925090506109fb565b61008c6004803603602081101561046357600080610460610e32565b50505b5035610b74565b6100a6610b8c565b600261047c610e9d565b81565b60008061048a610e9d565b906101000a90046001600160a01b031681565b60008060016104aa610e9d565b906101000a90046001600160a01b03166001600160a01b031663ebc00c05876040516001600160e01b031960e084901b1681526001600160a01b0390911660048201526024016020604051808303818680610503610efd565b15801561051857600080610515610e32565b50505b505a610522610f49565b5050505050158015610541573d6000803e3d600061053e610e32565b50505b505050506040513d60208110156105605760008061055d610e32565b50505b81019080805192506105be9150505760405162461bcd60e51b81526020600482015260176024820152761c9958d95a5d995c881b9bdd081c9959da5cdd195c9959604a1b6044820152606401604051809103906105bb610e32565b50505b835a6105c8611034565b11156106115760405162461bcd60e51b815260206004820152600b60248201526a1253d548195e1c1a5c995960aa1b60448201526064016040518091039061060e610e32565b50505b600061062a888888886002610624610e9d565b88610b98565b9050876001600160a01b0316816001600160a01b03161461068f5760405162461bcd60e51b81526020600482015260126024820152710a6d2cedcc2e8eae4ca40dad2e6dac2e8c6d60731b60448201526064016040518091039061068c610e32565b50505b60008789876040516001600160601b0319606094851b811660208301529290931b909116603483015260488201526068016040516020818303038152906040528051906020012060008181526003602052909150604090206106ef610e9d565b156107435760405162461bcd60e51b815260206004820152601760248201527620b63932b0b23c9039b2ba3a3632b21039b2b9b9b4b7b760491b604482015260640160405180910390610740610e32565b50505b600061081a88600080610754610e9d565b906101000a90046001600160a01b03166001600160a01b03166327e235e38d6040516001600160e01b031960e084901b1681526001600160a01b03909116600482015260240160206040518083038186806107ad610efd565b1580156107c2576000806107bf610e32565b50505b505a6107cc610f49565b50505050501580156107eb573d6000803e3d60006107e8610e32565b50505b505050506040513d602081101561080a57600080610807610e32565b50505b8101908080519250610c9d915050565b905080156109d95760008281526003602052879060409020819061083c61107a565b5050506000871161084957fe5b886001600160a01b03167f2f6639d24651730c7bf57c95ddbf96d66d11477e4ec626876f92c22e5f365e688b898460405180846001600160a01b03168152602001838152602001828152602001935050505060405180910390a26000806108ae610e9d565b906101000a90046001600160a01b03166001600160a01b031663beabacc88b8b846040516001600160e01b031960e086901b1681526001600160a01b03938416600482015291909216602482015260448101919091526064016020604051808303816000878061091c610efd565b1580156109315760008061092e610e32565b50505b505a61093b6110c8565b50505050505015801561095b573d6000803e3d6000610958610e32565b50505b505050506040513d602081101561097a57600080610977610e32565b50505b81019080805192506109d99150505760405162461bcd60e51b81526020600482015260186024820152773232b837b9b4ba103234b2103737ba103a3930b739b332b960411b6044820152606401604051809103906109d6610e32565b50505b9998505050505050505050565b600080826109f2610efd565b15159392505050565b6000808b8a148015610a0c57508b88145b8015610a1757508b86145b610a5b5760405162461bcd60e51b815260040180806020018281038252603981526020018061118f6039913960400191505060405180910390610a58610e32565b50505b60418c028314610aa55760405162461bcd60e51b815260040180806020018281038252602c8152602001806111c8602c913960400191505060405180910390610aa2610e32565b50505b60005b8c811015610b6357610b578e8e83818110610abf57fe5b905060200201356001600160a01b03168d8d84818110610adb57fe5b905060200201356001600160a01b03168c8c85818110610af757fe5b905060200201358b8b86818110610b0a57fe5b905060200201358a610b528b8b8080601f01602080910402602001604051908101604052818152929190602084018383808284376000920191909152508b9250610cb7915050565b61049d565b90910190600101610aa8565b509c9b505050505050505050505050565b6003602052806000526040600020905061047c610e9d565b6000600161048a610e9d565b6000805a63996d79a5598160e01b8152602081600483336000905af158600e01573d6000803e3d6000fd5b3d6001141558600a015760016000f35b8051925060005b6040811015610bf157600082820152602001610bda565b50869150600590508a8a8a8a6040517f19457468657265756d205369676e6564204d6573736167653a0a31383800000060208201526001600160601b0319606098891b8116603d8301526051820197909752607181019590955292861b85166091850152941b90921660a582015260b981019290925260d982015260f901604051602081830303815290604052805190602001209050610c918184610d28565b98975050505050505050565b6000818311610cac5782610cae565b815b90505b92915050565b606082518210610cc357fe5b6041820260006060604051818152601f19601f8301168101602001604052908015610cf5576020820181803683370190505b50905081602086010151602082015281604086010151604082015281606086010151606082015260418152949350505050565b60008151604114610d4157600080610d3e610e32565b50505b60008060006020850151925060408501519150606085015160001a9050601b811015610d6b57601b015b8060ff16601b1480610d8057508060ff16601c145b610d9257600080610d8f610e32565b50505b60018682858560405160008152602001604052604051808581526020018460ff1681526020018381526020018281526020019450505050506020604051602081039080840390855a610de2610f49565b5050505050158015610e01573d6000803e3d6000610dfe610e32565b50505b5050506020604051035193506001600160a01b038416610e2957600080610e26610e32565b50505b50505092915050565b632a2a7adb598160e01b8152600481016020815285602082015260005b86811015610e6a578086015182820160400152602001610e4f565b506020828760640184336000905af158600e01573d6000803e3d6000fd5b3d6001141558600a015760016000f35b505050565b6303daa959598160e01b8152836004820152602081602483336000905af158600e01573d6000803e3d6000fd5b3d6001141558600a015760016000f35b8051935060005b6040811015610ef857600082820152602001610ee1565b505050565b638435035b598160e01b8152836004820152602081602483336000905af158600e01573d6000803e3d6000fd5b3d6001141558600a015760016000f35b80516000825293506020610ee1565b638540661f598160e01b8152610f7a565b8080831115610cb1575090919050565b8080831015610cb1575090919050565b836004820152846024820152606060448201528660648201526084810160005b88811015610fb2578088015182820152602001610f9a565b506060828960a40184336000905af158600e01573d6000803e3d6000fd5b3d6001141558600a015760016000f35b815160408301513d6000853e8b8b82606087013350600060045af150596110078d3d610f6a565b8c016110138187610f5a565b5b828110156110285760008152602001611014565b50929c50505050505050565b635a98c361598160e01b8152602081600483336000905af158600e01573d6000803e3d6000fd5b3d6001141558600a015760016000f35b80516000825293506020610ee1565b6322bd64c0598160e01b8152836004820152846024820152600081604483336000905af158600e01573d6000803e3d6000fd5b3d6001141558600a015760016000f35b600081526020610ee1565b6385979f76598160e01b8152836004820152846024820152606060448201528760648201526084810160005b8981101561110c5780890151828201526020016110f4565b506060828a60a40184336000905af158600e01573d6000803e3d6000fd5b3d6001141558600a015760016000f35b815160408301513d6000853e8c8c82606087013350600060045af150596111618e3d610f6a565b8d0161116d8187610f5a565b5b82811015611182576000815260200161116e565b50929d5050505050505056fe53616d65206e756d626572206f6620656c656d656e747320726571756972656420666f7220616c6c20696e70757420706172616d6574657273607369676e617475726573602073686f756c6420636f6e7461696e2036352062797465732070657220494f55",
  "devdoc": {
    "kind": "dev",
    "methods": {
      "bulkClaim(address[],address[],uint256[],uint256[],address,bytes)": {
        "params": {
          "amounts": "Owed amounts of tokens",
          "expiration_blocks": "Tokens can only be claimed before this time",
          "one_to_n_address": "Address of this contract",
          "receivers": "Addresses to which the amounts are transferred",
          "senders": "Addresses from which the amounts are transferred",
          "signatures": "Sender's signatures concatenated into a single bytes array"
        },
        "returns": {
          "_0": "Amount of transferred tokens"
        }
      },
      "claim(address,address,uint256,uint256,address,bytes)": {
        "params": {
          "amount": "Owed amount of tokens",
          "expiration_block": "Tokens can only be claimed before this time",
          "one_to_n_address": "Address of this contract",
          "receiver": "Address to which the amount is transferred",
          "sender": "Address from which the amount is transferred",
          "signature": "Sender's signature over keccak256(sender, receiver, amount, expiration_block)"
        },
        "returns": {
          "_0": "Amount of transferred tokens"
        }
      },
      "constructor": {
        "params": {
          "_deposit_contract": "Address of UserDeposit contract",
          "_service_registry_contract": "Address of ServiceRegistry contract"
        }
      },
      "contractExists(address)": {
        "params": {
          "contract_address": "The address to check whether a contract is deployed or not"
        },
        "returns": {
          "_0": "True if a contract exists, false otherwise"
        }
      }
    },
    "version": 1
  },
  "userdoc": {
    "kind": "user",
    "methods": {
      "bulkClaim(address[],address[],uint256[],uint256[],address,bytes)": {
        "notice": "Submit multiple IOUs to claim the owed amount. This is the same as calling `claim` multiple times, except for the reduced gas cost."
      },
      "claim(address,address,uint256,uint256,address,bytes)": {
        "notice": "Submit an IOU to claim the owed amount. If the deposit is smaller than the claim, the remaining deposit is claimed. If no tokens are claimed, `claim` may be retried, later."
      },
      "contractExists(address)": {
        "notice": "Check if a contract exists"
      }
    },
    "version": 1
  },
  "storageLayout": {
    "storage": [
      {
        "astId": 3841,
        "contract": "data/source/services/OneToN.sol:OneToN",
        "label": "deposit_contract",
        "offset": 0,
        "slot": "0",
        "type": "t_contract(UserDeposit)5467"
      },
      {
        "astId": 3843,
        "contract": "data/source/services/OneToN.sol:OneToN",
        "label": "service_registry_contract",
        "offset": 0,
        "slot": "1",
        "type": "t_contract(ServiceRegistry)4968"
      },
      {
        "astId": 3845,
        "contract": "data/source/services/OneToN.sol:OneToN",
        "label": "chain_id",
        "offset": 0,
        "slot": "2",
        "type": "t_uint256"
      },
      {
        "astId": 3849,
        "contract": "data/source/services/OneToN.sol:OneToN",
        "label": "settled_sessions",
        "offset": 0,
        "slot": "3",
        "type": "t_mapping(t_bytes32,t_uint256)"
      }
    ],
    "types": {
      "t_bytes32": {
        "encoding": "inplace",
        "label": "bytes32",
        "numberOfBytes": "32"
      },
      "t_contract(ServiceRegistry)4968": {
        "encoding": "inplace",
        "label": "contract ServiceRegistry",
        "numberOfBytes": "20"
      },
      "t_contract(UserDeposit)5467": {
        "encoding": "inplace",
        "label": "contract UserDeposit",
        "numberOfBytes": "20"
      },
      "t_mapping(t_bytes32,t_uint256)": {
        "encoding": "mapping",
        "key": "t_bytes32",
        "label": "mapping(bytes32 => uint256)",
        "numberOfBytes": "32",
        "value": "t_uint256"
      },
      "t_uint256": {
        "encoding": "inplace",
        "label": "uint256",
        "numberOfBytes": "32"
      }
    }
  }
}